:100000000A128A11D12F00308A000408840A82075C
:100010000034093409340934093409340934093401
:060020000934093400342C
:1009CE000800FF34FF340A128A11E7240800803031
:1009DE00F0002530F1000A128A11A02508000A1233
:1009EE008A11B4260A128A110A128A11EE240800FC
:1009FE000A34093408340734063405340434033415
:100A0E00023401340A128A11F6240A128A11903025
:100A1E000A128A113A270A128A110A128A11EA2434
:100A2E000A128A1100287E088A007F0882001A2581
:100A3E000A128A118000840A04087D060319003404
:100A4E00FF0A0319FE0A1E2DF6007608F40074083C
:100A5E00F5000130F2020030031CF303F302720AB8
:100A6E000319730A031908007008F400750884004E
:100A7E007408831380000130F4007408F507302DDC
:100A8E00F1008030F0007008F200F30108307302BC
:100A9E0003180800710872050319592D83120313E8
:100AAE0085155C2D8312031385110310F20C85142A
:100ABE001030F000F00B612D00008312031385102F
:100ACE001030F000F00B692D00000130F0007008BE
:100ADE00F3074D2DF1007130F0007008F30073082C
:100AEE0084007210801B721473088400F210001BB5
:100AFE00F214730884007211801A72157308840040
:100B0E00F211001AF215730884007212801972160F
:100B1E0073088400F2120019F2167308840072131F
:100B2E008018721773088400F2130018F2177208F7
:100B3E000800AC2D8130A82D4030A82D2A30A82DCC
:100B4E002430831603139900CE2D7108253A03190C
:100B5E00BA2D6E3A0319BF2D3B3A0319C42DF33A41
:100B6E000319C92DCE2D7008803A0319A12DCE2D53
:100B7E007008003A0319A32DCE2D7008803A031980
:100B8E00A52DCE2D7008403A0319A72DCE2D831614
:100B9E0003131813981618121815831203139817A7
:100BAE00181318169811831603138C160B178B1720
:100BBE00080000347F349034903490347F34003405
:100BCE0000340034FF349134913491346E34003457
:100BDE00003400347E348134813481344234003424
:100BEE0000340034FF348134813481347E34003457
:100BFE0000340034FF349134913491349134003404
:100C0E0000340034FF3490349034903490340034F7
:100C1E00003400347E348134813489344E340834C7
:100C2E0000340034FF34103410341034FF340034E8
:100C3E0000340034FF341834243442348134003408
:100C4E0000340034FF3401340134013401340034F3
:100C5E0000340034FF344034203410342034403417
:100C6E00FF340034FF344034203410340834FF3461
:100C7E00003483120313A2000511A40103302402D1
:100C8E000318B22EA301043023020318AA2E7508EE
:100C9E00F6007608A0002308013EFF3A013E043E0E
:100CAE002207F6002408013EFF3A013EF70001300C
:100CBE000310F70DFF3E031D5F2E0310770D0C3E44
:100CCE007607F8007808840083130008F900790885
:100CDE00A1007403031D922E2408013EFF3A013E2B
:100CEE00033E013903198E2E7508013EFF3A013E6F
:100CFE00083EF6007608A00021080A128A11712516
:100D0E000A128A11F600760883120313A10001302D
:100D1E00F6007608A00720080A128A1147250A1243
:100D2E008A118312031321080A128A1147250A1207
:100D3E008A110130F600760883120313A3070430DC
:100D4E002302031C4E2E0130F6007608A407033052
:100D5E002402031C492E0515080083160313851162
:100D6E000511851083160317881008118811831238
:100D7E000313051585100030F000F1000C30F20061
:100D8E000030F30025300A128A112B250A128A111F
:100D9E00F4010930FA007A08F50025300A128A119A
:100DAE0040260A128A110F30F0000030F1000C308C
:100DBE00F2000030F30025300A128A112B250A1298
:100DCE008A11F4010A30FA007A08F50025300A1269
:100DDE008A1140260A128A110730F0000030F10005
:100DEE000C30F2000030F30025300A128A112B2548
:100DFE000A128A11F4010B30FA007A08F500253038
:100E0E000A128A1140260A128A110130F0000030AF
:100E1E00F1000C30F2000030F30025300A128A1176
:100E2E002B250A128A11F4010C30FA007A08F5000B
:100E3E0025300A128A1140260A128A11FF30F0005C
:100E4E000030F1000C30F2000030F30025300A12B1
:100E5E008A112B250A128A11F401F50125300A1286
:100E6E008A114026080083120313AE00BB0108301E
:100E7E003B0203180800BD0103303D020318BE2FCC
:100E8E00BC0104303C020318B62F3D1C7B2F3C08DE
:100E9E00013EFF3A013EA50002300310A50DFF3EB4
:100EAE00031D542F0310250D203E2E07A6003D08CE
:100EBE00A70004300310A70DFF3E031D612F031082
:100ECE00270D2607A8003B082807A900290884003B
:100EDE0083170008AA003D08AB0002300310AB0DCB
:100EEE00FF3E031D752FA32F3D08A50004300310F0
:100EFE00A50DFF3E031D7E2F0310250D2E07A60008
:100F0E003C08A70002300310A70DFF3E031D8A2FD9
:100F1E000310270D2607A8003B082807A90029085B
:100F2E00840083170008AA003D08AB0002300310AE
:100F3E00AB0DFF3E031D9E2F2F302B07AC003C0840
:100F4E002C07AD002D0884002A0883138000013081
:100F5E00A5002508BC0704303C02031C4C2F0130B1
:100F6E00A5002508BD0703303D02031C472FF401E1
:100F7E00F40A3B08A5002508F5002F300A128A1145
:100F8E0040260A128A11013083120313A500250888
:100F9E00BB073E2FC801C901CA01CB01CC01831783
:100FAE00F030FD000530FE00E030FF009030840090
:100FBE000A128A111E250A128A1183134830FD0067
:100FCE000430FE00FF30FF003E3084000A128A110A
:100FDE001E250A128A110A128A11E8240A128A118F
:100FEE00FB000A128A11E924FC0083010A128A11FD
:020FFE00092DBB
:00000001FF
