:100000000A128A11DF2F00308A000408840A82074E
:1000100000343C343C343C343C343C343C343C349C
:100020003C343C343C343C343C343C343C343C3450
:100030003C343C343C343C343C344D344134543412
:10004000523449345834383438340D340A34003496
:100050003E343E343E343E343E343E343E343E3410
:100060003E343E343E343E343E343E343E343E3400
:100070003E343E343E343E340D340A3400344D3484
:10008000613469346E3420345334633472346534EB
:1000900065346E3400343A340D340A3400342A3472
:0600A00000345F3400345F
:100A320008000A128A111925080090300A128A1138
:100A420067250800F000831203130C1E242D700882
:100A5200990008008030F0002530F1000A128A1156
:100A6200A426080064008001840A040603190034E5
:100A72000406342D0A128A11EF250A128A110A126B
:100A82008A112B2508007E088A007F0882004425EF
:100A92000A128A118000840A04087D0603190034B0
:100AA200FF0A0319FE0A482DF500831203130511EC
:100AB20075080A128A11C5250A128A1174080A12C7
:100AC2008A11C52583120313051508008312031327
:100AD200C7004830FA007A08F00047080A128A1163
:100AE200EB260A128A1148300A128A11A925080037
:100AF200F2007208840083130008031908007208C8
:100B02008400831300080A128A1123250A128A110B
:100B12000130F1007108F2077A2D0A128A113B2581
:100B22000A128A110A128A111E250A128A113730F4
:100B320083120313D0005008F6009030D100510800
:100B4200F70001300A128A1133270A128A11A82DDE
:100B5200F800F901083079020318080079087807CB
:100B6200F6007608840083130008F7007708F40083
:100B72007908013E0A128A1155250A128A1101309A
:100B8200F6007608F907AB2DF1008030F00070080E
:100B9200F200F301083073020318080071087205AD
:100BA2000319D72D831203138515DA2D831203132C
:100BB20085110310F20C85141030F000F00BDF2DBC
:100BC20000008312031385101030F000F00BE72DA4
:100BD20000000130F0007008F307CB2D83160313D9
:100BE20085110511851083160317881008118811C5
:100BF2008312031305158510F40109300A128A11B4
:100C020055250A128A110F30F6007608F4000A30D0
:100C12000A128A1155250A128A110730F60076083F
:100C2200F4000B300A128A1155250A128A11F401B6
:100C3200F40A0C300A128A1155250A128A11FF3061
:100C4200F6007608F40000300A128A1155250800D1
:100C5200F5007130F1007108F2003A2E7408F100CB
:100C6200750884007108831380000130F100710857
:100C7200F5070130F007FF30700784000A128A116D
:100C820003200A128A11F1007108F4007408031992
:100C92005F2E25307406031D2F2EF3010130F0075D
:100CA200FF30700784000A128A1103200A128A1187
:100CB200F400003A03195F2E2F2E3A2E7508840095
:100CC20083138001080000340034013401340134FC
:100CD2000134003400340034013400340034003470
:100CE2000034013400340034013400340034003460
:100CF200003401340034003401340134013401344D
:100D0200013401340034003401340034003400343E
:100D1200003401340034003401340034003400342F
:100D2200003401340034003401340034003400341F
:100D3200003401340034003401340034003400340F
:100D4200003401340034FF3083120313C500F20073
:100D52007208C600B72E8130B32E4030B32E2A302F
:100D6200B32E2430831603139900D92E7108253A25
:100D72000319C52E6E3A0319CA2E3B3A0319CF2E18
:100D8200F33A0319D42ED92E7008803A0319AC2EE7
:100D9200D92E7008003A0319AE2ED92E7008803A67
:100DA2000319B02ED92E7008403A0319B22ED92E4B
:100DB20083160313181398161812181583120313A7
:100DC2009817181318169811831603138C160B17FD
:100DD2008B170800F4008030F1007108F500F7016C
:100DE20008307702031808008030F1007108F5001E
:100DF20077087007F1007108840083138001F601FF
:100E02000830760203182E2F7608F1000230031004
:100E1200F10DFF3E031D082F0310710D7407F20040
:100E220077087207F3007308840083170003031D19
:100E3200242F7508F10077087007F2007208840009
:100E42007108831380040310F50C0130F10071085E
:100E5200F60708307602031C052F0130F1007108F5
:100E6200F707F12EFD007D08031908007608031923
:100E7200602F7D0803194D2F7608F8007808F000DE
:100E8200A0300A128A1129260A128A11A0300A12E7
:100E92008A1179250A128A117D080319602F4330BD
:100EA200F8007808F000A0300A128A1129260A12E6
:100EB2008A11A0300A128A1179250A128A117D0834
:100EC2000319732F0130F8007808F000A0300A12DD
:100ED2008A1129260A128A11A0300A128A1179254A
:100EE2000A128A11FB0108307B020318CD2FFC0184
:100EF20008307C020318B22F7B08F800023003107E
:100F0200F80DFF3E031D802F0310780D7707F900BF
:100F12007C087907FA007A08840083170003031D0E
:100F2200972F7D080319AA2F47309B2F7D0803199D
:100F3200AA2F4930F8007808F000A0300A128A116E
:100F420029260A128A11A0300A128A1179250A1258
:100F52008A110130F8007808FC0708307C02031C73
:100F62007D2F7D080319C52F1D30F8007808F00089
:100F7200A0300A128A1129260A128A11A0300A12F6
:100F82008A1179250A128A110130F8007808FB07C4
:100F920008307B02031C782F7D08031908002030DB
:100FA200F8007808F000A0300A128A1129260A12E5
:100FB2008A11A0300A128A11792508008313203081
:100FC200840047300A128A1133250A128A11A0308E
:100FD2008400E0300A128A1133250A128A1183171B
:100FE200D030FD000630FE006430FF0090308400F7
:0E0FF2000A128A11482583010A128A118E2DD7
:00000001FF
