:100000000A128A11D22F0234F2007208840083137C
:1000100000080319080072088400831300080A16F8
:100020008A151B270A128A110130F1007108F207A4
:10003000052883120313BC00BB01BB03BA01BA033A
:10004000B901BD013D08803A783E03182129FF30EF
:10005000BA00B3003308BB00BE013E08803A783EC8
:100060000318EF283D08031D48283C08F70000301E
:10007000F8003E08B3003308F9003D08B400340826
:10008000FA000A168A153B270A128A11003A9628A6
:1000900007303D06031D6D283C08F7000030F800CE
:1000A0003E08B3003308F9003D08B4003408FA00F4
:1000B0000A168A153B270A128A11003A031DB8282E
:1000C000831203133C08F7000030F8003E08B30029
:1000D0003308F9003D08FF3EA4283C08F700003033
:1000E000F8003E08B3003308F9003D08B4003408B6
:1000F000FA000A168A153B270A128A11003A031DD4
:10010000B828831203133C08F7000030F8003E08BB
:10011000B3003308F9003D08FF3EB4003408FA008C
:100120000A168A153B270A128A11013A031DB828BC
:10013000831203133C08F7000030F8003E08B300B8
:100140003308F9003D08013EB4003408FA000A16ED
:100150008A153B270A128A11013A031DB828831217
:1001600003133B0A031DB8283E08B3003308BB0045
:1001700083120313BB1BE42807303E06031DC5286A
:100180003A0A031DE4280830E1283C08F700003053
:10019000F8003E08013EB3003308F9003D08B40002
:1001A0003408FA000A168A153B270A128A11013A06
:1001B000031DE428831203133A0A031DE4283E08B2
:1001C000013EB3003308BA00013083120313B300B9
:1001D0003308BE073E08803A783E031C3228BB1F16
:1001E000BA1B1A293B08B300B401B31BB403B3090B
:1001F000B409B30A0319B40A3A08B500B601B51B2D
:10020000B60333083507B70034080318340A360735
:10021000B8003808803AFF0080307F02031D1229A1
:1002200003303702031C1A29013083120313B30071
:100230003308B907013083120313B3003308BD0735
:100240002228831203133908080083120313BF0006
:100250003F080319080033083404031951293308EF
:10026000A0003408A100AD300A128A1150220A12EF
:100270008A11AD300A128A1104200A128A11C5307F
:1002800083120313A0008C30A100AD300A128A1132
:1002900050220A128A11AD300A128A1104200A1261
:1002A0008A110B3083120313A0008930A100AD30F6
:1002B0000A128A1150220A128A11AD300A128A11CA
:1002C00004200A128A1183120313C0014008803AE5
:1002D000783E0318412AC1014108803A783E03184C
:1002E000262A3608B900BA01B91BBA03B909BA09F6
:1002F000B90A0319BA0A4008BB00BC01BB1BBC0306
:1003000039083B07BD003A0803183A0A3C07BE000B
:10031000BE1B092A3608B900BA01B91BBA03B909CC
:10032000BA09B90A0319BA0A4008BB00BC01BB1BD1
:10033000BC0339083B07BD003A0803183A0A3C07DA
:10034000BE003E08803AFF0080307F02031DAA29CC
:1003500004303D020318092A831203133508B9003B
:10036000BA01B91BBA03B909BA09B90A0319BA0A19
:100370004108BB00BC01BB1BBC0339083B07BD00E7
:100380003A0803183A0A3C07BE00BE1B092A350882
:10039000B900BA01B91BBA03B909BA09B90A0319F4
:1003A000BA0A4108BB00BC01BB1BBC0339083B07B0
:1003B000BD003A0803183A0A3C07BE003E08803ADE
:1003C000FF0080307F02031DE72904303D0203183F
:1003D000092A831203133708F7003808F800360398
:1003E000FF3A4007B9003908F9003503FF3A4107E1
:1003F000BA003A08FA000A168A153B270A128A112F
:10040000013A031D092AC93083120313A0008C305E
:100410000E2ACB3083120313A0008C30A100AD3024
:100420000A128A1150220A128A11AD300A128A1158
:1004300004200A128A11013083120313B90039080B
:10044000C1074108803A783E031C7129EA30A000B8
:100450008B30A100AD300A128A1150220A128A1183
:10046000AD300A128A1104200A128A110130831257
:100470000313B9003908C0074008803A783E031CCE
:100480006B29B830A0008A30A100AD300A128A1161
:1004900050220A128A11AD300A128A110420080073
:1004A00083120313B2002230A8002808AC00652A8A
:1004B000AE17A12A3108A800320884002808831347
:1004C00080000130A8002808B2072108A9002008F0
:1004D000A800A00A0319A10A2908FF00280884001F
:1004E0000A128A1500200A128A11AA002A08B100ED
:1004F00031080319B72B25303106031D5A2AAE01E6
:100500002108A9002008A800A00A0319A10A2908A7
:10051000FF00280884000A128A1500200A128A1196
:10052000B100003A0319B72B583A0319582A3C3A3C
:100530000319A12A0D3A0319A12A113A0319582ABD
:100540005A2AAE1BBB2A2C08840083130008AF0074
:10055000840A0008B0000230A8002808AC07B01FC9
:10056000182B0330A8002808AE04AF09B009AF0A61
:100570000319B00A182B2C08840083130008AF005D
:10058000840A0008B0000230A8002808AC07182B25
:10059000B101B10A053031060319212B3108A80039
:1005A0002807123E840088300318013EFF000A121B
:1005B0008A1500200A128A11A9000A128A15002041
:1005C0000A128A11AA002A083002031DE92A290802
:1005D0002F02031C212B0130A8002808B107CA2ACA
:1005E000B101B10A043031060319212B3108A800EA
:1005F00028071C3E840088300318013EFF000A12C1
:100600008A1500200A128A11A9000A128A150020F0
:100610000A128A11AA002A083002031D112B290888
:100620002F02031C212B0130A8002808B107F22A51
:100630002E088039003A0319C82A803A0319F02A93
:10064000212B2E0803390319302B2D30A800320836
:1006500084002808831380000130A8002808B2070E
:100660003108A8002808AD00A62B0A30F800003099
:10067000F9002D08A8002807123E840088300318CE
:10068000013EFF000A128A1500200A128A11F000AA
:100690000A128A1500200A128A11F1003008F300AC
:1006A0002F08F2000A168A11CE220A128A11710846
:1006B000FB007008FA000A168A11F1210A128A1149
:1006C0007808303E83120313A90029089A2B2D08BD
:1006D000A80028071C3E840088300318013EFF0054
:1006E0000A128A1500200A128A11F0000A128A15CD
:1006F00000200A128A11F1003008F3002F08F200DE
:100700000A168A11CE220A128A1170080F39831232
:100710000313A9002908AB002B088A3E84008B3004
:100720000318013EFF000A128A1500200A128A11DE
:10073000A8002808B1003108A80032088400280861
:10074000831380000130A8002808B207FF30A800FA
:100750002808AD072D0A0319652A2E088039003AAA
:100760000319352B803A0319672B9B2B9B2B3208DF
:1007700084008313800108000A168A1187200A1258
:100780008A11D42BDE3083120313A0008B30A1001A
:10079000AD300A128A1150220A128A11AD300A12A3
:1007A0008A1104200A128A11013083160313A50747
:1007B0000318A60A0030A607260883120313B40004
:1007C00083160313250883120313B30000300A169F
:1007D0008A1143200A128A110A168A1559270A1209
:1007E0008A11023083160313E10061088312031398
:1007F000EF0083160313AB010A168A15B1270A12FC
:100800008A1183160313E100610883120313EE00BB
:1008100083160313AC01413083120313A0008A3006
:10082000A1006E0883160313E100E2016108831240
:100830000313A20083160313620883120313A30099
:10084000AD300A128A1150220A128A11AD300A12F2
:100850008A1104200A128A110A128A1136250A12F4
:100860008A11003A0319C22B831203136E088316F0
:100870000313E1006107903E84002C0883170007F2
:10088000E20001300310E20DFF3E031D422C031075
:10089000620D243EE30088300318013EE400630843
:1008A000A7006408A8000130A5070318A60A0030B5
:1008B000A6072B08E100610883120313B300831617
:1008C0000313270883120313B400831603132808A5
:1008D00083120313B500CD3083160313E2006208C0
:1008E00083120313B6006F080A168A1117270A121B
:1008F0008A1183160313E300630883120313ED00C8
:10090000ED30A0008B30A1006D0883160313E100C9
:10091000E201610883120313A20083160313620825
:1009200083120313A300AD300A128A1150220A1257
:100930008A11AD300A128A1104200A128A11831614
:1009400003132B08E100610883120313C20083160E
:100950000313270883120313C30083160313280805
:1009600083120313C400CD3083160313E200620820
:1009700083120313C5006F080A168A1184270A120E
:100980008A11831203136D03031DE02C0A168A15C6
:1009900016270A128A11033083160313E3008A30E4
:1009A000E2005630E100E10BD32CE20BD32CE30B39
:1009B000D32CDA2CCD300A168A11F2250A128A11AC
:1009C0008A3083120313B3008C30B400CD30831609
:1009D0000313E100610883120313B50001300A120A
:1009E0008A1557270A128A110A168A1516270A121B
:1009F0008A11831203136D08031DF12B8316031351
:100A00002B08E100610883120313A000831603136F
:100A1000270883120313A1008316031328088312E7
:100A20000313A200CD3083160313E2006208831281
:100A30000313A3006F080A168A11C6230A128A112B
:100A40000D3083160313E300AF30E200C130E10044
:100A5000E10B282DE20B282DE30B282D000001309F
:100A600083160313E1006108AB07532C83120313B1
:100A7000E1010F30CD004D08E4000F30CD004D08EE
:100A8000E500D030E7008A30E800E60103146E0D7F
:100A9000903E84008317000866020318AB2F6E088F
:100AA000CD004D07903E8400660883170007CE00F6
:100AB00001300310CE0DFF3E031D592D03104E0DC6
:100AC000243ECF0088300318013ED0004F08831623
:100AD0000313A90083120313500883160313AA00FB
:100AE000290883120313BE00831603132A088312F6
:100AF0000313BF00CD30CD004D08C0006F080A16AB
:100B00008A1171210A128A1183120313CE004E0832
:100B1000DF0083160313290883120313BB00831617
:100B200003132A0883120313BC00CD30CD004D08F7
:100B3000BD006F080A168A119B210A128A118312BE
:100B40000313CE004E08E0005F08CD004D08EC0016
:100B50006008803ACD006C08803ACD02031CA62FB5
:100B6000831603132B0883120313CD004D08B30023
:100B700083160313290883120313B4008316031387
:100B80002A0883120313B500CD30CE004E08B600FC
:100B90006C080A128A1531250A128A11831203136E
:100BA000CF004F08EB000B30B3008C30B4006C0862
:100BB000CD004D08B5006B08CE004E08B600831678
:100BC0000313290883120313B700831603132A089B
:100BD00083120313B80000300A128A1125210A1269
:100BE0008A110B3083120313BB008C30BC00003021
:100BF0000A168A115A220A128A11831203136B08E9
:100C0000CD004D08B3008316031329088312031384
:100C1000B400831603132A0883120313B500CD30E2
:100C2000CE004E08B6006C080A128A15C2260A12B7
:100C30008A11003A03199F2F83120313E101E10A7D
:100C40006B08CD004D08A0008316031329088312FA
:100C50000313A100831603132A0883120313A200AF
:100C6000CD30CE004E08A300D530CF004F08A400F1
:100C70006C080A168A119A250A128A118316031320
:100C8000290883120313B300831603132A0883125F
:100C90000313B4006B080A168A110A230A128A1178
:100CA00083120313CD00CE014D08E2004E08E3008D
:100CB000CD300A168A11F7200A128A118312031303
:100CC000CD0006304D020318EB2E003063020630D3
:100CD000031962020318EB2ED5300A128A15AE25CD
:100CE0000A128A11831203133309CD003409CE008E
:100CF000CD0A0319CE0AD5300A128A1119200A1218
:100D00008A1183120313CF00D0010310CF0DD00D31
:100D1000CF09D009CF0A0319D00A6308C0006208BE
:100D2000BF000330C1000030C2000A168A116420DF
:100D30000A128A11831203133F09D1004009D2001D
:100D4000D10A0319D20AD5300A128A15CD240A1203
:100D50008A11831203133308D3003408D40003101C
:100D6000D30DD40D0310D30DD40DD309D409D30A58
:100D70000319D40AD5300A168A111F210A128A11C2
:100D800083120313D500D6010A30FF000310D50DDE
:100D9000D60DFF0BC62E53085507D700540803186D
:100DA000540A5607D80051085707D90052080318AB
:100DB000520A5807DA004F085907DB005008031899
:100DC000500A5A07DC004D085B07E9004E0803187B
:100DD0004E0A5C07742FD5300A128A15AE250A1206
:100DE0008A11831203133309CD003409CE00CD0AD2
:100DF0000319CE0AD5300A128A1119200A128A1153
:100E000083120313CF00D0014F08BF005008C00069
:100E10000330C1000030C2000A168A1164200A1291
:100E20008A11831203133F09D1004009D200D10A6D
:100E30000319D20A6308C0006208BF000530C10070
:100E40000030C2000A168A1164200A128A11831225
:100E500003133F09D3004009D400D30A0319D40A6D
:100E6000D5300A128A15CD240A128A11831203136F
:100E70003308D5003408D6000310D50DD60DD5099A
:100E8000D609D50A0319D60AD5300A168A111F21A8
:100E90000A128A1183120313D700D8010A30FF0007
:100EA0000310D70DD80DFF0B502F55085707D90049
:100EB00056080318560A5807DA0053085907DB008A
:100EC00054080318540A5A07DC0051085B07DD0078
:100ED00052080318520A5C07DE004D085D07E9005E
:100EE0004E0803184E0A5E07EA00FC30B3008B3050
:100EF000B400D530CD004D08B50000300A128A1577
:100F000057270A128A11831203136808803ACD000A
:100F10006A08803A4D02031D8F2F69086702031883
:100F20009F2F831203136A08E8006908E700660828
:100F3000CD004D08E5006C08CD004D08E4000130FF
:100F400083120313CD004D08EC07A82D0130CD000E
:100F50004D08E607462D6103031DCE2F6508CD0021
:100F60004D0883160313AC00831203136408CD00ED
:100F70004D08EF00BE30C2008C30C3006F08CD00BA
:100F80004D08C400831603132B0883120313CE00ED
:100F90004E08C50000300A168A114D26831203132D
:100FA00061080800EE018313A0308400DD300A16CA
:100FB0008A1533270A128A118317A230FD001F30C9
:100FC000FE009F30FF00903084000A168A156E27BD
:100FD0000A128A118313E130FD001F30FE00123027
:100FE000FF00DD3084000A168A156E270A128A1166
:100FF0000A128A110320EF0083010A128A11BC2B06
:10100000FF1B0A2883137F1883170008840A03191B
:10101000FF0A08007F087F398A000408840A031940
:10102000FF0A8200013400340A340034643400348E
:10103000E8340334103427340134003410340034DD
:1010400000340134003410340234023402340234E7
:1010500000340F34003400340634033400340034D8
:1010600002340634043400340334063400340034CB
:1010700002340334013400340034073404340034BF
:1010800006340234023400340134073400340034AE
:1010900002340234033400340034073401340034A1
:1010A000033402340234003404340734003400348E
:1010B0000234023406340034033403340034003480
:1010C0000034063402340034003403340234003473
:1010D0000234033400340034023406340034003463
:1010E000023407340234003407340234023400344A
:1010F0000434073404340034023402340734003436
:101100000134073401340034633468346F34733489
:1011100065346E3420347334753462345F3469342A
:101120006E3464346534783420343D3420342534CE
:1011300064342C342034743465346D3470345F344A
:101140007034723465345F34783420343D34203464
:10115000253464342C342034743465346D34703464
:101160005F347034723465345F347234693473348C
:101170006B3420343D342034253464340D340A3447
:1011800000343D343D343D343D343D343D343D3414
:101190003D343D343D343D343D343D343D3469349B
:1011A00073345F34763461346C34693464343D3480
:1011B0003D343D343D343D343D343D343D343D34A7
:1011C0003D343D343D340D340A3400343D343D3437
:1011D0003D343D343D343D343D343D343D343D3487
:1011E0003D343D343D343D346834693474345F34C7
:1011F0006C3461346E3464343D343D343D343D34BC
:101200003D343D343D343D343D343D343D343D3456
:101210000D340A3400343C343C343C343C343C34EB
:101220003C343C343C343C343C343C343C343C343E
:101230003C343C343C343C343C343C343C344D341D
:101240004134543452344934583434347834343496
:101250000D340A3400343C343C343C343C343C34AB
:101260003C343C343C343C343C343C343C343C34FE
:101270003C343C343C343C343C343C343C344D34DD
:10128000413454345234493458343834783438344E
:101290000D340A34003469346E346434653478347F
:1012A00020343D342034253464342C3420347334D9
:1012B000753462345F3469346E3464346534783440
:1012C00020343D342034253464340D340A34003461
:1012D00041344C34493447344E345F345234493409
:1012E0004734483454345F344F34563445345234E0
:1012F0005F3442344F3455344E34443441345234E4
:1013000059340D340A3400346C3467345F34673434
:10131000653474345F3468346534693467346834F0
:101320007434203468346534693467346834743410
:1013300020343D342034253464340D340A340034F0
:101340006C3467345F346734653474345F346834C4
:10135000653469346734683474345F3461346634B6
:101360007434653472345F346D3465347234673488
:1013700065340D340A3400343D343D343D34663434
:1013800069346E3464345F34623465347334743475
:101390005F3473346F346C347534743469346F343F
:1013A0006E343D343D343D340D340A340034413420
:1013B0004C34493447344E345F344C34453446342D
:1013C00054345F344F345634453452345F344234ED
:1013D0004F3455344E3444344134523459340D343E
:1013E0000A340034643465346C34653474346534E0
:1013F0005F346D3461347434723469347834203439
:1014000063346F3475346E34743420343D34203496
:10141000253464340D340A34003468346934743447
:101420003134203472346F34773420343D342034F6
:10143000253464342C34203463346F346C342034D9
:101440003D342034253464340D340A340034683497
:10145000693474343234203472346F347734203445
:101460003D342034253464342C34203463346F34D8
:101470006C3420343D342034253464340D340A3443
:10148000003467345F3463346834613472345F34F9
:1014900069346E3466346F345F3469346E34643466
:1014A0006534783420343D342034253464340D34AC
:1014B0000A34003465346534703472346F346D34FA
:1014C0005F34773472346934743465345F3469342A
:1014D0006E34743420343D342034253464340D3477
:1014E0000A3400344234653466346F3472346534FF
:1014F0002034643465346C34653474346534203499
:101500004D344134543452344934583438347834B6
:10151000383400347034723469346E347434663460
:101520005F3461346C346C345F344D344134543442
:101530005234493458343434783434340D340A3421
:1015400000343C343C343C343C343C343C343C3457
:101550003C343C343C343C343C343C343C343C340B
:101560003C343C343C343C343C340D340A34003498
:101570003E343E343E343E343E343E343E343E34DB
:101580003E343E343E343E343E343E343E343E34CB
:101590003E343E343E343E340D340A340034653437
:1015A0006534703472346F346D345F347234653442
:1015B000613464345F3469346E34743420343D34BF
:1015C0002034253464340D340A3400344234653414
:1015D00066346F347234653420346D34653472345B
:1015E0006734653420344D344134543452344934F2
:1015F00058343834783438340034413466347434F0
:10160000653472342034643465346C346534743435
:10161000653420344D3441345434523449345834D0
:1016200038347834383400344134663474346534B2
:10163000723420346D346534723467346534203448
:101640004D34413454345234493458343834783475
:10165000383400346E3475346D3420346634753467
:101660006C346C34203472346F34773473342034F7
:101670003D342034253464340D340A34003472345B
:10168000693473346B343A34203428342534643468
:10169000293420343E342034283425346434293429
:1016A0000D340A3400345334743461347234743475
:1016B00020346534763461346C3475346134743478
:1016C00069346F346E340D340A3400347234693442
:1016D0006734683474345F346D346F347334743405
:1016E00020343D342034253464340D340A3400343D
:1016F00072346F34773428342534643429342034F8
:10170000693473342034663475346C346C340D347D
:101710000A340034303431343234333434343534F0
:101720003634373438343934413442344334443431
:10173000453446340034743465346D3470345F3469
:101740007234693473346B3420343D34203425349E
:1017500064340D340A3400346C34653466347434C3
:101760005F346D346F347334743420343D3420343A
:10177000253464340D340A340034783420343D3454
:101780002034253464342C342034793420343D34EE
:101790002034253464340D340A3400346E34753406
:1017A0006D345F3468346F346C34653420343D34C8
:1017B0002034253464340D340A3400344734413441
:1017C0004D34453420344F3456344534523421346A
:1017D000213421340D340A340034683469347434CB
:1017E0005F3472346534733420343D34203425340E
:1017F00064340D340A340034563461346C34693442
:101800006434203469346E347334743461346E3427
:10181000633465340034413466347434653472346E
:101820002034663461346C346C3420346F34663464
:10183000663400346E346F3474342034763461345A
:101840006C346934643431340D340A3400346E3409
:101850006F3474342034763461346C3469346434D5
:1018600032340D340A3400346E346F34743420341E
:10187000763461346C346934643433340D340A346E
:1018800000347334743461347234743420343D342D
:101890002034253464340D340A3400346634613421
:1018A0006C346C345F346F346634663431340D34E8
:1018B0000A340034663461346C346C345F346F3411
:1018C0006634663432340D340A3400347334693487
:1018D0007A34653420343D342034253464340D3476
:1018E0000A340034733474346F34703420343D342B
:1018F0002034253464340D340A34003452346F34C7
:1019000077342034693473342034663475346C345D
:101910006C3400344D34613469346E3420347334A3
:1019200063347234653465346E34003472346F3429
:10193000773420343D342034253458340D340A347F
:10194000003472346F34773420343D3420342534FD
:1019500064340D340A3400346E346F3474342034FB
:101960006834693474340D340A34003476346134A4
:101970006C34693464340D340A34003443346834CC
:101980006F34733465346E3400343A340D340A34B1
:1019900000342A3400345F34003483120313BB0054
:1019A000B801B901FF30B5003508BA00BC010830F4
:1019B0003C0203182A2DFF30B5003508BA00073065
:1019C000B5003508BD00BD1B252D3A0A0319092DA8
:1019D0003B08F7000030F8003D08B5003508F90075
:1019E0003C08B6003608FA000A168A153B270A1288
:1019F0008A15013A031D072D831203133A08031DAC
:101A0000072D0130B8070318B90A0030B90783124F
:101A100003133B08F7000030F8003D08B500350817
:101A2000F9003C08B6003608FA000A168A153B276A
:101A30000A128A1583120313B7003708BA00FF3061
:101A4000B5003508BD07BD1FE52C0130B5003508D0
:101A5000BC07D72C831203133908B4003808B3002D
:101A6000080083120313B9000330B7003708BB0026
:101A7000BB1BA92DBA013A08803A7C3E0318A32D5E
:101A8000013083160313A5070318A60A0030A60722
:101A9000831203133408F7003508F8003B08B70039
:101AA0003708F9003A08B8003808FA000A168A150B
:101AB0003B270A128A15013A031D982D831203133E
:101AC0003608F7000030F8003B083307013EB70046
:101AD0003708F9003A083907B8003808FA000A163A
:101AE0008A153B270A128A15013A031D7B2D8312A2
:101AF0000313330808008312031333083B07B700AE
:101B0000B8010318B80AB31BB803BB1BB803831290
:101B100003133808803AFF0080307F02031D922DA6
:101B200007303702031C982D831203133308080073
:101B3000013083120313B7003708BA073A08803A16
:101B40007C3E031C402DFF30B7003708BB07BB1F8E
:101B50003A2D0130B7003708B307342D8312031331
:101B6000BB00B901BA01FF30B5003508BC00BD01AA
:101B700008303D020318282EFF30B5003508BC00A0
:101B8000B8010730B5003508BE00BE1B232E3C0A45
:101B9000031DE12D3B08F7000030F8003E08B500BA
:101BA0003508F9003D08B6003608FA000A168A150D
:101BB0003B270A128A1583120313B7003708BC00AB
:101BC0001D2E3B08F7000030F8003E08B500350830
:101BD000F9003D08B6003608FA000A168A153B27B8
:101BE0000A128A15831203133C060319142E3B08AC
:101BF000F7000030F8003E08B5003508F9003D0850
:101C0000B6003608FA000A168A153B270A128A150A
:101C100083120313B7003708BC003C08031D122EC3
:101C2000B801142EB801B80A3803031D1D2E013067
:101C3000B9070318BA0A0030BA07FF30B5003508F3
:101C4000BE07BE1FC72D0130B5003508BD07B82D32
:101C5000831203133A08B4003908B300080070086F
:101C6000F5007108F600A72E760883120313FF0013
:101C7000750884000A128A150020F30073080139E0
:101C80000800760883120313FF00750884000A1207
:101C90008A150020F300730C0139080076088312BE
:101CA0000313FF00750884000A128A150020F30050
:101CB000730CF400740C01390800760883120313C6
:101CC000FF00750884000A128A150020F300730CC7
:101CD000F400F40C740C0139080076088312031325
:101CE000FF00750884000A128A150020F300730EA5
:101CF00001390800760883120313FF007508840079
:101D00000A128A150020F300730EF400740C0139D6
:101D10000800760883120313FF00750884000A1276
:101D20008A150020F300730EF400F40C740C0139D2
:101D30000800760883120313FF00750884000A1256
:101D40008A150020F300730D730D01390800720825
:101D5000003A0319342E013A0319412E033A0319AC
:101D60004E2E013A03195D2E073A03196D2E013AE2
:101D700003197A2E033A0319892E013A0319992E71
:101D8000C12E080083120313B9000330831203131A
:101D9000B7003708BA00BA1B552FBB013B08803A81
:101DA0007C3E0318502F3408F7003508F8003A0835
:101DB000B7003708F9003B08B8003808FA000A16DF
:101DC0008A153B270A128A15013A031D452F8312F3
:101DD00003133608F7000030F8003A083307B7005D
:101DE0003708F9003B083907B8003808FA000A1626
:101DF0008A153B270A128A15013A031D012F00306C
:101E000008008312031339083B07B700B801031811
:101E1000B80AB91BB803BB1BB80383120313B81B62
:101E2000282F39083B07B700B8010318B80AB91BB7
:101E3000B803BB1BB803831203133808803AFF00B2
:101E400080307F02031D262F08303702031C2A2F03
:101E5000003008008312031333083A07B700B801B3
:101E60000318B80AB31BB803BA1BB80383120313D1
:101E70003808803AFF0080307F02031D412F083070
:101E80003702031C452F0030080001308312031372
:101E9000B7003708BB073B08803A7C3E031CD32EB3
:101EA000FF30B7003708BA07CB2E01300800831285
:101EB0000313B80038080319080033083404031961
:101EC000832F3308A0003408A100AD300A128A1114
:101ED00050220A128A15AD300A128A1104200A1201
:101EE0008A15C53083120313A0008C30A100AD30D9
:101EF0000A128A1150220A128A15AD300A128A116A
:101F000004200A128A152B3083120313A000893093
:101F1000A100AD300A128A1150220A128A15AD3082
:101F20000A128A1104200A128A1583120313B901B6
:101F3000083039020318F12FBA0108303A020318A9
:101F4000D72F3508F7000030F8003908B6003608FA
:101F5000F9003A08B7003708FA000A168A153B2735
:101F60000A128A15013A031DBB2FC93083120313CD
:101F7000A0008C30C02FCB3083120313A0008C3014
:101F8000A100AD300A128A1150220A128A15AD3012
:101F90000A128A1104200A128A15013083120313CF
:101FA000B6003608BA0708303A02031CA12FEA30FF
:101FB000A0008B30A100AD300A128A1150220A1203
:101FC0008A15AD300A128A1104200A128A150130CE
:101FD00083120313B6003608B90708303902031C10
:101FE0009C2FB830A0008A30A100AD300A128A11AF
:101FF00050220A128A15AD300A128A1104200800F4
:10200000700883160313DD007108DE00DF01E001B4
:102010000800F5007508F4007408F6000130F202BB
:102020000030031CF303F302720A0319730A031945
:1020300008007008F4007608840074088313800098
:102040000130F4007408F6070E2883120313BF0052
:102050003B083F07BC003C0884008313000A031DB3
:1020600041287E3083120313B3008C30B4003F0844
:10207000BC003C08B50000300A128A155727013011
:1020800008000030080083120313B6003408B500BE
:102090003508B7003708B5003508F00036080A16CD
:1020A0008A11AB200A168A11831203133308B50074
:1020B0003508B7003708B5003508F0003608013E8E
:1020C0000A168A11AB20080083120313C301C4014E
:1020D0003F1C70284108C3070318C40A4208C407FC
:1020E00001300310C10DC20DFF3E031D71280130E8
:1020F0000310C00CBF0CFF3E031D78283F084004AE
:10210000031D68284408C0004308BF0008000A16E1
:102110008A1194220A168A110A168A152B270A1682
:102120008A1100300A168A11C5210A168A118312F3
:102130000313340883160313A60083120313330812
:1021400083160313A5002608F1002508F0000A16DF
:102150008A1100200800F200831603178C18AC289F
:102160007208831203178D0070088C003F30F10055
:102170007108831603178C058312031303108B1B3E
:1021800003148B13831603170C1555308D00AA30DA
:102190008D008C140C1183120313031C08008B1781
:1021A0000800F4007008F3007308F6007408F300E8
:1021B0007308F5000130F1020030031CF203F20253
:1021C000710A0319720A0319080076088400831340
:1021D0000008F30075088400730880000130F300E4
:1021E0007308F6070130F3007308F507DA28831245
:1021F0000313B5000730B3003308B600B61B1D2922
:102200003608B3003308F00035080A168A1523276C
:102210000A168A11013A031D152983120313360881
:10222000013EFF3A013E083E0800FF3083120313CF
:10223000B3003308B607B61F002908300800831220
:102240000313C200C301C4014408803A783E031856
:1022500043294408C0004008BB0042080A168A11FE
:1022600025200A168A11013A031D3C2901308312E8
:102270000313C0004008C307013083120313C000DA
:102280004008C40724298312031343080800F100FF
:102290008030F0007008F200F30108307302031878
:1022A0000800710872050319592983120313851553
:1022B0005C298312031385110310F20C851410306E
:1022C000F000F00B61290000831203138510103019
:1022D000F000F00B692900000130F0007008F307EE
:1022E0004D2983120313C200013083160313A5077F
:1022F0000318A60A0030A607831203133E08B30092
:102300003F08B4004008C1004108B50042080A1661
:102310008A1156240A168A11013A031D9429831240
:1023200003134208013E0800FF3083120313C1006B
:102330004108C207742983120313C00001308316B9
:102340000313A5070318A60A0030A6078312031378
:102350003B08B3003C08B4003D08BE003E08B50091
:1023600040080A168A11F4240A168A11023A031D3B
:10237000BE29831203134008FF3E08000130831278
:102380000313BE003E08C0079E2983120313B70043
:10239000B801B90137080A168A15C9270A168A1121
:1023A00083120313B500B6013508B600B501350830
:1023B000B8003608B9003708013E0A168A15C92741
:1023C00083120313B500B6013508B8070318B90A1C
:1023D0003608B907831203133908B4003808B3006C
:1023E00008007808790403191E2AFD01FD0AF91B6B
:1023F000052A01300310F80DF90DFF3E031DFA29DF
:102400000130FC007C08FD07F72979087B02031DD9
:102410000B2A78087A02031C132A7808FA02790832
:10242000031CFB03FB0201300310F90CF80CFF3E08
:10243000031D142A0130FD02031D052A7B08F90043
:102440007A08F8000800F4000730F1007108F50080
:10245000F51B08007508F100F201F11BF203720888
:10246000803A803C031D362A71087002031C552AED
:102470007508803A7F3E031C4E2A7508FF3E74079C
:10248000F1007108840083130008F20075087407D6
:10249000F3007308840072088000552A75087407D9
:1024A000F1007108840083138001FF30F10071088E
:1024B000F507282A83120313BE003E0803190800FB
:1024C0003B083C040319862A3B08A0003C08A100F5
:1024D000AD300A128A1150220A168A11AD300A1242
:1024E0008A1104200A168A11C53083120313A00032
:1024F0008C30A100AD300A128A1150220A168A11BE
:10250000AD300A128A1104200A168A110030831293
:102510000313B300B400CD30BD003D08B500013059
:102520000A128A155727080083160313851105110F
:10253000851083160317881008118811831203135E
:1025400005158510F40109300A168A157B270A162D
:102550008A110F30F6007608F4000A300A168A1540
:102560007B270A168A110730F6007608F4000B3034
:102570000A168A157B270A168A11F401F40A0C3010
:102580000A168A157B270A168A11FF30F60076088C
:10259000F40000300A168A157B270800F501F601C1
:1025A000700871040319052BF701F70AF11BE42ADF
:1025B00001300310F00DF10DFF3E031DD92A01304B
:1025C000F4007408F707D62A01300310F50DF60D54
:1025D000FF3E031DE52A71087302031DF12A7008EE
:1025E0007202031CFA2A7008F2027108031CF3033A
:1025F000F302751401300310F10CF00CFF3E031DC3
:10260000FB2A0130F702031DE42A7608F100750861
:10261000F000080083120313B70083120313B901FB
:102620003908803A7C3E03180800B8013808803A1F
:102630007C3E0318422B3308F7003408F8003908B1
:10264000B5003508F9003808B6003608FA000A1651
:102650008A153B270A168A11013A031D372B83126C
:10266000031339083707FF3A013E083E08000130DE
:1026700083120313B5003508B8073808803A7C3E4A
:10268000031C1B2B0130B5003508B907102B003097
:10269000FC000030FB000030FA000030F900701C34
:1026A000652B7408F907750803110318013E031D13
:1026B000FA07760803110318013E031DFB0777088C
:1026C00003110318013E031DFC070130F80003103D
:1026D000F40DF50DF60DF70DF80B672B0130031017
:1026E000F30CF20CF10CF00CFF3E031D6F2B730882
:1026F000720471047004031D4F2B7C08F3007B08E7
:10270000F2007A08F1007908F0000800922B81307D
:102710008E2B40308E2B2A308E2B243083160313C1
:102720009900B42B7108253A0319A02B6E3A0319AE
:10273000A52B3B3A0319AA2BF33A0319AF2BB42B61
:102740007008803A0319872BB42B7008003A0319DC
:10275000892BB42B7008803A03198B2BB42B70088B
:10276000403A03198D2BB42B8316031318139816B4
:1027700018121815831203139817181318169811A6
:10278000831603138C160B178B1708008312031381
:10279000A400A5010430250203180800A601043096
:1027A00026020318042C2108F7002208F800250847
:1027B000FC007C08F9002608FD007D08FA000A16D6
:1027C0008A153B270A168A11013A031DFA2B831238
:1027D000031325082007FC007C08F50026082407C1
:1027E000FD007D08F600F70123080A168A154A271E
:1027F0000A168A110130FC007C0883120313A60715
:1028000004302602031CD32B0130FC007C08A507F2
:10281000CA2B83120313AC01AA1F152CA909AA09FC
:10282000A90A0319AA0AAC01AC0AA81F1C2CA70903
:10283000A809A70A0319A80A270828040319492C7C
:10284000AB01AB0AA81B302C01300310A70DA80D5B
:10285000FF3E031D252C0130FD007D08AB07222C17
:1028600028082A02031D362C27082902031C3E2CA7
:102870002708A9022808031CAA03AA020130031092
:10288000A80CA70CFF3E031D3F2C0130AB02031D1B
:10289000302C2C080319512CA909AA09A90A0319DB
:1028A000AA0A2A08A8002908A7000800831203130F
:1028B000BB000330B6003608BC00BC1BA12CBD0118
:1028C0003D08803A7C3E03189B2C3308F7003408FF
:1028D000F8003C08B6003608F9003D08B700370894
:1028E000FA000A168A153B270A168A11013A031DB7
:1028F000902C831203133D08B600B701B61BB70333
:102900003B08B800B901B81BB903360838073908C5
:102910000318390A3707BA00BA1F902C0130080093
:10292000013083120313B6003608BD073D08803A14
:102930007C3E031C652CFF30B6003608BC07BC1F6C
:102940005F2C0030080083120313A2008030A00027
:102950002008A300A50108302502031808008030D4
:10296000A0002008A30025087C07A0002008840000
:1029700083138001A401083024020318EB2C2208E1
:10298000F7000030F8002408A0002008F90025080E
:10299000A1002108FA000A168A153B270A168A1197
:1029A000013A031DDF2C831203132308A00025081E
:1029B0007C07A100210884002008831380040310F1
:1029C00083120313A30C0130A0002008A4070830D1
:1029D0002402031CBF2C8030A0002008A30001307B
:1029E000A0002008A507AB2C83120313B800033006
:1029F000B6003608B900B91B432DBA013A08803A2F
:102A00007C3E03183D2D3308F7003408F8003908E0
:102A1000B6003608F9003A08B7003708FA000A1677
:102A20008A153B270A168A11013A031D322D83129B
:102A3000031338083A07B600B7010318B70AB81BE2
:102A4000B703BA1BB703831203133708803AFF009A
:102A500080307F02031D2E2D08303602031C322DDC
:102A600002300800013083120313B6003608BA079B
:102A70003A08803A7C3E031C032DFF30B60036082E
:102A8000B907B91FFD2C0030080083160313600836
:102A9000F3005F08F2005E08F1005D08F0004130CD
:102AA000F700C630F6004E30F5006D30F4000A161F
:102AB0008A1147230A168A11730883160313E0004C
:102AC0007208DF007108DE007008DD003930DD07B4
:102AD000303003183130DE07003003180130DF07D3
:102AE000003003180130E0075D0883120313A200D1
:102AF000831603135E0883120313A30083160313C4
:102B00005F0883120313A400831603136008831263
:102B10000313A5001030A600250DA50CA40CA30CD2
:102B2000A20CA60B8C2DFF302205A0007F302305C0
:102B3000A100080083120313A7000830A50000308D
:102B4000A6002308FC007C08F0002608F2002508F7
:102B5000F10024080A168A11D1200A168A1183125C
:102B60000313A8010430280203180800A901043047
:102B700029020318ED2D2108F7002208F800280883
:102B8000FC007C08F9002908FD007D08FA000A16FF
:102B90008A153B270A168A11013A031DE32D831279
:102BA000031328082007FC007C08F50029082707E4
:102BB000FD007D08F600F701F70A24080A168A15B9
:102BC0004A270A168A110130FC007C08831203137D
:102BD000A90704302902031CBB2D0130FC007C082E
:102BE000A807B22D83120313C300C2010730C0002F
:102BF0004008C400C41B0800013083160313A50756
:102C00000318A60A0030A607831203134408C00065
:102C10004008BB0043080A168A1125200A168A11AB
:102C2000013A031D462E723083120313B3008A301B
:102C3000B400CD30C0004008B50000300A128A153B
:102C400057270A168A11831203134408C00040084C
:102C5000F00043080A168A1123220A168A11FD3051
:102C600083120313B3008A30B400CD30C000400893
:102C7000B50000300A128A1557270A168A1101304A
:102C800083120313C0004008C207FA2DFF308312DD
:102C90000313C0004008C407FA2D83120313CC00AD
:102CA0004C0803190800420843040319792E42080E
:102CB000A0004308A100AD300A128A1150220A1662
:102CC0008A11AD300A128A1104200A168A11C53001
:102CD00083120313A0008C30A100AD300A128A11B8
:102CE00050220A168A11AD300A128A1104200A16DF
:102CF0008A11831203136E08C6004607903E8400B3
:102D0000831603132C088317000783120313C700CD
:102D100001300310C70DFF3E031D892E0310470D20
:102D2000243EC80088300318013EC9004808CA0084
:102D30004908CB000030B300B4004408C600460880
:102D4000B5004508C7004708B6004A08B7004B0859
:102D5000B80001300A128A1125210800F300730817
:102D6000F2007208F400FC2E740884007108013926
:102D700083130010031D00140800740884007108F8
:102D8000013983138010031D801408007408840027
:102D90007108013983130011031D00150800740820
:102DA00084007108013983138011031D8015080008
:102DB000740884007108013983130012031D001682
:102DC0000800740884007108013983138012031D00
:102DD00080160800740884007108013983130013F9
:102DE000031D00170800740884007108013983135B
:102DF0008013031D801708007008003A0319B42ED1
:102E0000013A0319BD2E033A0319C62E013A0319DC
:102E1000CF2E073A0319D82E013A0319E12E033AAF
:102E20000319EA2E013A0319F32E162F0800831214
:102E30000313B900033083120313B7003708BB0034
:102E4000BB1B822FBA013A08803A7C3E03187D2FC3
:102E50003408F7003508F8003B08B7003708F900D8
:102E60003A08B8003808FA000A168A153B270A16ED
:102E70008A11013A031D722F8312031333083B0793
:102E8000B700B8010318B80AB31BB803BB1BB803DB
:102E9000831203133808803AFF0080307F02031D3D
:102EA000532F07303702031C572F013008008312BD
:102EB00003133608F7000030F8003B083307013EE3
:102EC000B7003708F9003A083907B8003808FA009F
:102ED0000A168A153B270A168A11013A031D722F1A
:102EE00001300800013083120313B7003708BA0716
:102EF0003A08803A7C3E031C282FFF30B700370881
:102F0000BB07202F0030080083120313C800E630EF
:102F1000B3008A30B4004808C6004608B50042082D
:102F2000C7004708B6004308B7004408B80000309F
:102F30000A128A1125210A168A11E6308312031318
:102F4000B3008A30B4004508C6004608B50000301A
:102F50000A128A1557270A168A1183120313C90108
:102F6000043049020318F32FCA0104304A0203183F
:102F7000EB2F4308F7004408F8004908C60046084C
:102F8000F9004A08C7004708FA000A168A153B27C5
:102F90000A168A11013A031DE12F8312031349080F
:102FA0004207C6004608F5004A084807C700470818
:102FB000F600F701F70A45080A168A154A270A1685
:102FC0008A11013083120313C6004608CA07043071
:102FD0004A02031CB92F0130C6004608C907043055
:102FE0004902031CB42F1430B3008B30B4004508E1
:102FF000C6004608B50000300A128A155727080097
:103E24000134003400340034CD300A168A158D274D
:103E34000800F000831203130C1E1C2F7008990055
:103E44000800F1007108031D292F0130080000301B
:103E540008008030F0002530F1000A168A1186230C
:103E6400080064008001840A04060319003404066F
:103E7400342F79087707F00078080318013EF10021
:103E84007A08FB007B08F2000A128A152F26080024
:103E9400FA007608F8007808F0007708F900790845
:103EA400F10075087A070A168A11AE260800003058
:103EB400F000F1000830F2000030F300CD300A16B3
:103EC4008A1109200A168A150A168A151627080067
:103ED4007E088A007F0882006A270A168A158000F5
:103EE400840A04087D0603190034FF0A0319FE0A34
:103EF4006E2FF50083120313051175080A168A1133
:103F040047210A168A1574080A168A114721831252
:103F140003130515080083120313A6002730FD00C0
:103F24007D08FC0026080A168A11A3240A168A159D
:103F340027300A168A15E4270800003402340234B4
:103F4400023404340234063404340A3404340E349F
:103F540001340F3404341334013414340434093078
:103F640083120313A7000030A8000A168A114525FE
:103F74000A168A15831203132108AA002008A9002F
:103F84000A168A1109248312031327080800F10072
:103F94006400831603178C18CA2F71088312031741
:103FA4008D003F30F0007008831603178C050C1445
:103FB40003100C1803140030031801308312031784
:103FC4000C080800F800F901083079020318080009
:103FD40079087807F6007608840083130008F70050
:103FE4007708F4007908013E0A168A157B270A1619
:0C3FF4008A150130F6007608F907E62F68
:04400E003CFFFFFE76
:00000001FF
