:060000000A128A11CD2F47
:10000A0083120313BF000330B8003808C000C01BB6
:10001A005428C1014108803A7C3E03184E2835080D
:10002A00F7003608F8004008B8003808F900410817
:10003A00B9003908FA000A168A1598210A128A1193
:10004A00013A031D4328831203134108B800B9017A
:10005A00B81BB9033F08BA00BB01BA1BBB03380877
:10006A003A073B0803183B0A3907BC00BC1B412866
:10007A0043280A128A1140280130080001308312ED
:10008A000313B8003808C1074108803A7C3E031CB4
:10009A001428FF30B8003808C007C01F0E280030E7
:1000AA00080083120313CB005D280A128A115C2808
:1000BA00033083120313B9003908CC00CC1B05297D
:1000CA00CD014D08803A7C3E0318FD283608F7001A
:1000DA003708F8004C08B9003908F9004D08BA0089
:1000EA003A08FA000A168A1598210A128A11013A60
:1000FA00031DF228831203133808F7000030F800B2
:10010A004C083507B9003908F9004D084B07BA0001
:10011A003A08FA000A168A1598210A128A11013A2F
:10012A0003199B28A0280A128A119A28003008006D
:10013A000A128A119F28831203134B084D07B9002C
:10014A00BA010318BA0ACB1BBA03CD1BBA0383122E
:10015A000313BA1BCB284B084D07B900BA01031881
:10016A00BA0ACB1BBA03CD1BBA03831203133A088C
:10017A00803AFF0080307F02031DC528083039020B
:10018A000318CB28D0280A128A11CA28003008007E
:10019A000A128A11CF288312031335084C07B900B3
:1001AA00BA010318BA0AB51BBA03CC1BBA038312E5
:1001BA0003133A08803AFF0080307F02031DE728C4
:1001CA00103039020318ED28F2280A128A11EC2895
:1001DA00003008000A128A11F12801308312031331
:1001EA00B9003908CD074D08803A7C3E031C6B28BC
:1001FA00FF30B9003908CC0763280A128A1104298A
:10020A000130080083120313C900490803190800C2
:10021A0035083604031973293508A0003608A100E9
:10022A0090300A128A157C260A128A118312031345
:10023A002108BC002008BB003C08803AFF0080303F
:10024A007F02031D2A2941303B02031C38294C3006
:10025A00F1008930F2000A168A1533220A128A112D
:10026A000A128A1137299030F1000130F2000A1679
:10027A008A1533220A128A11E93083120313A00065
:10028A008C30A10090300A128A157C260A128A1133
:10029A00831203132108BE002008BD003E08803ADD
:1002AA00FF0080307F02031D5C2941303D02031CA0
:1002BA006A294C30F1008930F2000A168A15332275
:1002CA000A128A110A128A1169299030F100013042
:1002DA00F2000A168A1533220A128A110B30831287
:1002EA000313A0008930A10090300A128A157C26D7
:1002FA000A128A11831203132108C0002008BF00C2
:10030A004008803AFF0080307F02031D8E29413069
:10031A003F02031C9C294C30F1008930F2000A1676
:10032A008A1533220A128A110A128A119B299030DD
:10033A00F1000130F2000A168A1533220A128A11D4
:10034A0083120313CA0110304A020318652ACB012B
:10035A0008304B0203182B2A3708F7003808F80030
:10036A004A08B9003908F9004B08BA003A08FA00F5
:10037A000A168A1598210A128A11013A031DEF29D1
:10038A00ED3083120313A0008C30A10090300A12C2
:10039A008A157C260A128A11831203132108C200C5
:1003AA002008C1004208803AFF0080307F02031D06
:1003BA00E02941304102031C182A4C30F1008930EF
:1003CA00F2000A168A1533220A128A110A128A11AF
:1003DA00ED29182AEF3083120313A0008C30A100F4
:1003EA0090300A128A157C260A128A118312031384
:1003FA002108C4002008C3004408803AFF00803066
:10040A007F02031D0A2A41304302031C182A4C307A
:10041A00F1008930F2000A168A1533220A128A116B
:10042A000A128A11172A9030F1000130F2000A16D6
:10043A008A1533220A128A11013083120313B90072
:10044A003908CB0708304B02031CB1290E30A00033
:10045A008C30A10090300A128A157C260A128A1161
:10046A00831203132108C6002008C5004608803AF3
:10047A00FF0080307F02031D442A41304502031CDD
:10048A00522A4C30F1008930F2000A168A153322BA
:10049A000A128A110A128A11512A9030F100013087
:1004AA00F2000A168A1533220A128A1101308312BF
:1004BA000313B9003908CA0710304A02031CAC29D1
:1004CA000930A0008B30A10090300A128A157C26D0
:1004DA000A128A11831203132108C8002008C700D0
:1004EA004808803AFF0080307F02031D7E2A41308F
:1004FA004702031C8C2A4C30F1008930F2000A169C
:10050A008A1533220A128A110A128A118B2A90300A
:10051A00F1000130F2000A168A153322080083120C
:10052A000313CF004F0803190800350836040319CE
:10053A00002B3508A0003608A10090300A128A154F
:10054A007C260A128A11831203132108C20020088A
:10055A00C1004208803AFF0080307F02031DB72A9B
:10056A0041304102031CC52A4C30F1008930F200A7
:10057A000A168A1533220A128A110A128A11C42A01
:10058A009030F1000130F2000A168A1533220A125D
:10059A008A11E93083120313A0008C30A100903035
:1005AA000A128A157C260A128A1183120313210859
:1005BA00C4002008C3004408803AFF0080307F024C
:1005CA00031DE92A41304302031CF72A4C30F1008B
:1005DA008930F2000A168A1533220A128A110A127F
:1005EA008A11F62A9030F1000130F2000A168A15B3
:1005FA0033220A128A112C3083120313A000893085
:10060A00A10090300A128A157C260A128A118312D6
:10061A0003132108C6002008C5004608803AFF00D7
:10062A0080307F02031D1B2B41304502031C292BFE
:10063A004C30F1008930F2000A168A1533220A1268
:10064A008A110A128A11282B9030F1000130F20027
:10065A000A168A1533220A128A1183120313D00149
:10066A005008803A703E0318742CD1015108803A20
:10067A00783E0318392C3808BB00BC01BB1BBC03ED
:10068A00BB09BC09BB0A0319BC0A5008BD00BE015C
:10069A00BD1BBE033B083D07BF003C0803183C0ACC
:1006AA003E07C000C01BFC2B3808BB00BC01BB1BAB
:1006BA00BC03BB09BC09BB0A0319BC0A5008BD002C
:1006CA00BE01BD1BBE033B083D07BF003C08031823
:1006DA003C0A3E07C0004008803AFF0080307F0293
:1006EA00031D792B04303F020318FC2B83120313DA
:1006FA003708BB00BC01BB1BBC03BB09BC09BB0A56
:10070A000319BC0A5108BD00BE01BD1BBE033B084C
:10071A003D07BF003C0803183C0A3E07C000C01B47
:10072A00FC2B3708BB00BC01BB1BBC03BB09BC09C3
:10073A00BB0A0319BC0A5108BD00BE01BD1BBE039A
:10074A003B083D07BF003C0803183C0A3E07C000AF
:10075A004008803AFF0080307F02031DB62B043028
:10076A003F020318FC2B831203133908F7003A08D7
:10077A00F8003803FF3A5007BB003B08F90037037B
:10078A00FF3A5107BC003C08FA000A168A1598215C
:10079A000A128A11013A031DFC2BED30831203134E
:1007AA00A0008C30A10090300A128A157C260A1209
:1007BA008A11831203132108C8002008C7004808B9
:1007CA00803AFF0080307F02031DED2B4130470243
:1007DA00031C252C4C30F1008930F2000A168A15C8
:1007EA0033220A128A110A128A11FA2B252CEF30A7
:1007FA0083120313A0008C30A10090300A128A15CC
:10080A007C260A128A11831203132108CA002008BF
:10081A00C9004A08803AFF0080307F02031D172C66
:10082A0041304902031C252C4C30F1008930F2007A
:10083A000A168A1533220A128A110A128A11242CDC
:10084A009030F1000130F2000A168A1533220A129A
:10085A008A11013083120313BB003B08D1075108E8
:10086A00803A783E031C402B0E30A0008C30A10049
:10087A0090300A128A157C260A128A1183120313EF
:10088A002108CC002008CB004C08803AFF008030B9
:10089A007F02031D522C41304B02031C602C4C304A
:1008AA00F1008930F2000A168A1533220A128A11D7
:1008BA000A128A115F2C9030F1000130F2000A16F8
:1008CA008A1533220A128A11013083120313BB00DC
:1008DA003B08D0075008803A703E031C3A2B093077
:1008EA00A0008B30A10090300A128A157C260A12C9
:1008FA008A11831203132108CE002008CD004E0866
:10090A00803AFF0080307F02031D8D2C41304D025A
:10091A00031C9B2C4C30F1008930F2000A168A1510
:10092A0033220A128A110A128A119A2C9030F10083
:10093A000130F2000A168A153322080083160313BF
:10094A00C2010F30A0002008C5000F30A000200807
:10095A00C600D030C9008A30CA00C7010314831206
:10096A0003136E0D103E84008317000883160313C9
:10097A0047020318972F831203136E088316031373
:10098A00A0002007103E8400470883170007A10033
:10099A0001300310A10DFF3E031DCE2C0310210DC3
:1009AA00243EA20088300318013EA3002208D50085
:1009BA002308D600550883120313C20083160313B3
:1009CA00560883120313C300D83083160313A000FA
:1009DA00200883120313C400831603136C080A1633
:1009EA008A150F240A128A1183160313A1002108FB
:1009FA00C000550883120313BF0083160313560859
:100A0A0083120313C000D83083160313A0002008F2
:100A1A0083120313C100831603136C080A168A157E
:100A2A003D240A128A1183160313A1002108C1006A
:100A3A004008A0002008CD004108803AA0004D08D7
:100A4A00803AA002031C8F2F5708A00020088312A7
:100A5A000313B50083160313550883120313B60054
:100A6A0083160313560883120313B700D83083166C
:100A7A000313A100210883120313B800831603137A
:100A8A004D080A168A119E240A128A118316031324
:100A9A00A2002208C8002F3083120313B5008C303D
:100AAA00B600831603134D08A0002008831203130F
:100ABA00B700831603134808A10021088312031301
:100ACA00B80083160313550883120313B90083165B
:100ADA000313560883120313BA0000300A128A114C
:100AEA0094220A128A112F3083120313CC008C30FD
:100AFA00CD0000300A168A11A5220A128A1183161D
:100B0A0003134808A000200883120313B5008316B4
:100B1A000313550883120313B600831603135608EA
:100B2A0083120313B700D83083160313A1002108D8
:100B3A0083120313B800831603134D080A128A118D
:100B4A0056200A128A11003A0319852F83160313B5
:100B5A00C201C20A4808A000200883120313A00099
:100B6A0083160313550883120313A1008316031374
:100B7A00560883120313A200D83083160313A10068
:100B8A00210883120313A300D03083160313A20093
:100B9A00220883120313A400831603134D080A16AE
:100BAA008A114F200A128A118316031355088312D9
:100BBA000313B50083160313560883120313B600F2
:100BCA008316031348080A168A15B2260A128A11CE
:100BDA0083160313A000A1012008C3002108C40042
:100BEA00D8300A168A15B5230A128A1183160313F6
:100BFA00A0000A3020020318A32E003044020A3053
:100C0A00031943020318A32ED0300A168A111A2494
:100C1A000A128A1183120313350983160313A000DB
:100C2A0083120313360983160313A100A00A0319BA
:100C3A00A10AD0300A168A11E7260A128A118316E7
:100C4A000313A200A3010310A20DA30DA209A30975
:100C5A00A20A0319A30A440883120313CA008316BB
:100C6A000313430883120313C9000330CB00003077
:100C7A00CC000A168A1556220A128A118312031305
:100C8A00490983160313A400831203134A0983161E
:100C9A000313A500A40A0319A50AD0300A168A115B
:100CAA00C6210A128A118312031335088316031305
:100CBA00A60083120313360883160313A700031032
:100CCA00A60DA70D0310A60DA70DA609A709A60A2A
:100CDA000319A70AD0300A168A15E1230A128A11C3
:100CEA0083160313A800A9010A30FF000310A80DF8
:100CFA00A90DFF0B7B2E26082807AA002708031830
:100D0A00270A2907AB0024082A07AC00250803187C
:100D1A00250A2B07AD0022082C07AE00230803186A
:100D2A00230A2D07AF0020082E07CB00210803183D
:100D3A00210A2F07502F0A128A11A22ED0300A1622
:100D4A008A111A240A128A11831203133509831687
:100D5A000313A00083120313360983160313A10099
:100D6A00A00A0319A10AD0300A168A11E7260A1224
:100D7A008A1183160313A200A30122088312031304
:100D8A00C90083160313230883120313CA0003300E
:100D9A00CB000030CC000A168A1556220A128A1194
:100DAA0083120313490983160313A400831203133E
:100DBA004A0983160313A500A40A0319A50A4408BD
:100DCA0083120313CA0083160313430883120313FF
:100DDA00C9000530CB000030CC000A168A1556220D
:100DEA000A128A1183120313490983160313A600F0
:100DFA00831203134A0983160313A700A60A0319C9
:100E0A00A70AD0300A168A11C6210A128A11831239
:100E1A000313350883160313A80083120313360835
:100E2A0083160313A9000310A80DA90DA809A9097F
:100E3A00A80A0319A90AD0300A168A15E1230A1248
:100E4A008A1183160313AA00AB010A30FF000310AC
:100E5A00AA0DAB0DFF0B2C2F28082A07AC00290876
:100E6A000318290A2B07AD0026082C07AE0027080D
:100E7A000318270A2D07AF0024082E07B0002508FB
:100E8A000318250A2F07B10020083007CB002108D4
:100E9A000318210A3107CC00203083120313B5004E
:100EAA008C30B600D030B7000130B80000300A12DA
:100EBA008A1107210A128A11652F0A128A11642FD0
:100ECA00831603134A08803AA0004C08803A20028D
:100EDA00031D712F4B084902031C772F852F0A1215
:100EEA008A11762F831603134C08CA004B08C900CF
:100EFA004708A0002008C6004D08A0002008C50029
:100F0A00013083160313A0002008CD07212D0A12F1
:100F1A008A118E2F0130A0002008C707B32C0A12AD
:100F2A008A11962F4203031DC62F4608A0002008E7
:100F3A0083120313EF00831603134508A000200849
:100F4A00EC00E23083120313D2008C30D3008316F4
:100F5A0003136C08A000200883120313D40083161D
:100F6A0003135708A100210883120313D500003088
:100F7A000A168A114A260A128A11C62F0A128A11D9
:100F8A00C52F83160313420808000A128A11CC2FB0
:100F9A00EC01ED01EE01EF018313CE308400E8305D
:100FAA000A168A1587210A128A118317903084003B
:100FBA00E0300A168A1587210A128A112230FD00AA
:100FCA001930FE00DB30FF00103084000A168A1543
:100FDA00BC210A128A118313ED30FD001930FE007C
:100FEA006A30FF00E83084000A168A15BC218301A2
:100FFA000A128A15102DFF1B0A2883137F188317DC
:10100A000008840A0319FF0A08007F087F398A004A
:10101A000408840A0319FF0A8200013400340A34DE
:10102A00003464340034E83403341034273401348F
:10103A0000341034003400340134003410340234E3
:10104A0002340234023400340F34003400340634DB
:10105A0003340034003402340634043400340334D4
:10106A0006340034003402340334013400340034CA
:10107A0007340434003406340234023400340134B0
:10108A0007340034003402340234033400340034A8
:10109A000734013400340334023402340034043493
:1010AA000734003400340234023406340034033482
:1010BA00033400340034003406340234003400347B
:1010CA00033402340034023403340034003402346A
:1010DA00063400340034023407340234003407344E
:1010EA000234023400340434073404340034023441
:1010FA0002340734003401340734013400346334D1
:10110A0068346F34733465346E3420347334753410
:10111A0062345F3469346E3464346534783420342C
:10112A003D342034253464342C342034743465340A
:10113A006D3470345F347034723465345F347834AB
:10114A0020343D342034253464342C34203474342F
:10115A0065346D3470345F347034723465345F349E
:10116A007234693473346B3420343D34203425347A
:10117A0064340D340A3400343D343D343D343D3456
:10118A003D343D343D343D343D343D343D343D34CD
:10119A003D343D34693473345F34763461346C34AD
:1011AA00693464343D343D343D343D343D343D345A
:1011BA003D343D343D343D343D343D340D340A3400
:1011CA0000343D343D343D343D343D343D343D34CA
:1011DA003D343D343D343D343D343D343D34683452
:1011EA00693474345F346C3461346E3464343D343D
:1011FA003D343D343D343D343D343D343D343D345D
:10120A003D343D343D340D340A3400343C343C34EE
:10121A003C343C343C343C343C343C343C343C3444
:10122A003C343C343C343C343C343C343C343C3434
:10123A003C343C344D3441345434523449345834B7
:10124A0031343634783438340D340A3400343C348A
:10125A003C343C343C343C343C343C343C343C3404
:10126A003C343C343C343C343C343C343C343C34F4
:10127A003C343C343C344D34413454345234493493
:10128A0058343434783434340D340A340034453420
:10129A00523452344F3452343A34203467345F343F
:1012AA006434653462347534673420346934733491
:1012BA0020346F3476346534723466346C346F3467
:1012CA007734653464340D340A34003469346E3446
:1012DA0064346534783420343D342034253464341D
:1012EA002C3420347334753462345F3469346E3488
:1012FA0064346534783420343D34203425346434FD
:10130A000D340A34003441344C34493447344E34B1
:10131A005F34523449344734483454345F344F3498
:10132A005634453452345F3442344F3455344E3493
:10133A0044344134523459340D340A3400346C3450
:10134A0067345F346734653474345F3468346534C1
:10135A0069346734683474342034683465346934E1
:10136A0067346834743420343D342034253464348A
:10137A000D340A3400346C3467345F3467346534AE
:10138A0074345F3468346534693467346834743467
:10139A005F34613466347434653472345F346D3466
:1013AA0065347234673465340D340A3400343D349C
:1013BA003D343D34663469346E3464345F346234A7
:1013CA006534733474345F3473346F346C34753405
:1013DA00743469346F346E343D343D343D340D34E5
:1013EA000A34003441344C34493447344E345F347F
:1013FA004C344534463454345F344F3456344534CF
:10140A0052345F3442344F3455344E3444344134C8
:10141A00523459340D340A340034643465346C342B
:10142A006534743465345F346D34613474347234C1
:10143A0069347834203463346F3475346E347434D8
:10144A0020343D342034253464340D340A340034D5
:10145A006834693474343134203472346F347734F4
:10146A0020343D342034253464342C34203463341D
:10147A006F346C3420343D342034253464340D34D4
:10148A000A3400346834693474343234203472349F
:10149A006F34773420343D342034253464342C348A
:1014AA00203463346F346C3420343D342034253492
:1014BA0064340D340A34003467345F346334683476
:1014CA00613472345F3469346E3466346F345F3435
:1014DA0069346E3464346534783420343D342034CD
:1014EA00253464340D340A340034423465346634A5
:1014FA006F34723465342034643465346C34653442
:10150A007434653420344D344134543452344934BB
:10151A0058343134363478343834003465346534E8
:10152A00703472346F346D345F34773472346934A2
:10153A00743465345F3469346E34743420343D3421
:10154A002034253464340D340A340034423465348A
:10155A0066346F347234653420346D3465347234D1
:10156A006734653420344D34413454345234493468
:10157A0058343134363478343834003441346634AB
:10158A007434653472342034643465346C346534AC
:10159A007434653420344D3441345434523449342B
:1015AA005834313436347834383400347034723440
:1015BA0069346E34743466345F3461346C346C3438
:1015CA005F344D3441345434523449345834343409
:1015DA00783434340D340A3400343C343C343C34EA
:1015EA003C343C343C343C343C343C343C343C3471
:1015FA003C343C343C343C343C343C343C343C3461
:10160A003C340D340A3400343E343E343E343E34E5
:10161A003E343E343E343E343E343E343E343E3430
:10162A003E343E343E343E343E343E343E343E3420
:10163A000D340A34003465346534703472346F34CE
:10164A006D345F3472346534613464345F346934C0
:10165A006E34743420343D342034253464340D34EB
:10166A000A340034413466347434653472342034B4
:10167A006D34653472346734653420344D34413402
:10168A005434523449345834313436347834383452
:10169A0000346E3475346D342034663475346C34E9
:1016AA006C34203472346F347734733420343D34DC
:1016BA002034253464340D340A34003472346934E5
:1016CA0073346B343A34203428342534643429345E
:1016DA0020343E34203428342534643429340D34FB
:1016EA000A34003453347434613472347434203418
:1016FA006534763461346C347534613474346934E5
:10170A006F346E340D340A340034723469346734F9
:10171A00683474345F346D346F3473347434203401
:10172A003D342034253464340D340A3400347234A0
:10173A006F347734283425346434293420346934B6
:10174A0073342034663475346C346C340D340A3492
:10175A00003430343134323433343434353436347A
:10176A0037343834393441344234433444344534D8
:10177A0046340034743465346D3470345F347234F2
:10178A00693473346B3420343D3420342534643462
:10179A000D340A3400346C346534663474345F347E
:1017AA006D346F347334743420343D34203425342A
:1017BA0064340D340A340034783420343D3420340F
:1017CA00253464342C342034793420343D342034A4
:1017DA00253464340D340A3400346E3475346D346F
:1017EA005F3468346F346C34653420343D342034CB
:1017FA00253464340D340A340034473441344D34CA
:10180A00453420344F34563445345234213421344B
:10181A0021340D340A3400346834693474345F3442
:10182A0072346534733420343D34203425346434BE
:10183A000D340A340034563461346C3469346434F7
:10184A00203469346E347334743461346E346334DE
:10185A006534003441346634743465347234203467
:10186A00663461346C346C3420346F3466346634D4
:10187A0000346E346F3474342034763461346C340A
:10188A006934643431340D340A3400346E346F34BC
:10189A0074342034763461346C34693464343234C8
:1018AA000D340A3400346E346F3474342034763490
:1018BA0061346C346934643433340D340A3400349A
:1018CA007334743461347234743420343D342034C3
:1018DA00253464340D340A340034663461346C348B
:1018EA006C345F346F346634663431340D340A3400
:1018FA000034663461346C346C345F346F3466346B
:10190A00663432340D340A340034733469347A3428
:10191A00653420343D342034253464340D340A349B
:10192A000034733474346F34703420343D342034CA
:10193A00253464340D340A34003452346F34773425
:10194A002034693473342034663475346C346C341E
:10195A0000344D34613469346E3420347334633462
:10196A007234653465346E34003472346F347734CB
:10197A0020343D342034253458340D340A340034AC
:10198A0072346F34773420343D342034253464344F
:10199A000D340A3400346E346F34743420346834AD
:1019AA00693474340D340A340034763461346C3456
:1019BA00693464340D340A340034433468346F347F
:1019CA00733465346E3400343A340D340A340034D6
:0819DA002A3400345F340034AC
:1019E800F6007608F4007408F5000130F2020030C1
:1019F800031CF303F302720A0319730A031908009C
:101A08007008F4007508840074088313800001309E
:101A1800F4007408F507F92C0A168A159D220A1293
:101A28008A15013083160313D3070318D40A00302C
:101A3800D407540883120313B600831603135308FC
:101A480083120313B50000300A168A1579220A1288
:101A58008A150A168A15A7210A128A1502308312D6
:101A68000313E100610883160313EC00D7010A167B
:101A78008A1500220A128A1583120313E1006108ED
:101A8800EE00EF016130A0008A30A1006E08E1008D
:101A9800E2016108A2006208A30090300A128A15C8
:101AA8007C260A128A15831203132108E6002008EF
:101AB800E5006608803AFF0080307F02031D662D2E
:101AC80041306502031C742D4C30F1008930F2005E
:101AD8000A168A1533220A128A150A128A15732DD4
:101AE8009030F1000130F2000A168A1533220A12EA
:101AF8008A150A128A11A3240A128A15003A031DAC
:101B0800B82D023083120313A0008C30A10090304E
:101B18000A128A157C260A128A15831203132108D1
:101B2800E8002008E7006808803AFF0080307F025C
:101B3800031DA02D41306702031CAE2D4C30F1006F
:101B48008930F2000A168A1533220A128A150A12F7
:101B58008A15AD2D9030F1000130F2000A168A1571
:101B680033220A128A15152D831203136E08E10019
:101B78006107103E84006F0883170007E2000130F8
:101B88000310E20DFF3E031DC42D0310620D243E19
:101B9800E30088300318013EE4006308EC006408A1
:101BA800ED00013083160313D3070318D40A00305D
:101BB800D407570883120313E1006108B5006C08C5
:101BC800B6006D08B700D830E2006208B800831686
:101BD80003136C080A168A111F230A128A15831226
:101BE8000313E3006308EB008316031357088312FB
:101BF8000313E1006108D2006C08D3006D08D4001B
:101C0800D830E2006208D500831603136C080A1660
:101C18008A119B230A128A15831203136B03031D6F
:101C28002F2E0A168A1565210A128A150330831287
:101C38000313E3008A30E2005630E100E10B222E64
:101C4800E20B222EE30B222E292ED8300A168A11F7
:101C580065210A128A15AE3083120313B5008C3041
:101C6800B600D830B7000030B80001300A128A1127
:101C780007210A128A150A168A1565210A128A1579
:101C8800831203136B08031D322D831603135708A1
:101C980083120313E1006108A0006C08A1006D081D
:101CA800A200D830E2006208A300831603136C0870
:101CB8000A168A156C260A128A150630831203132F
:101CC800E3001330E200B130E100E10B692EE20BD2
:101CD800692EE30B692E702E013083120313E10085
:101CE800610883160313D707D52D0A128A157B2E90
:101CF80083120313B400AC01AD012230A8002808F8
:101D0800AE00992EB017D52E3308A80034088400E9
:101D18002808831780000130A8002808B40701307C
:101D2800AC070318AD0A0030AD072108A900200848
:101D3800A800A00A0319A10A2908FF00280884009E
:101D48000A128A1500200A128A15AA002A08B30066
:101D580033080319F72F25303306031D882EB001E9
:101D68002108A9002008A800A00A0319A10A290827
:101D7800FF00280884000A128A1500200A128A1512
:101D8800B300003A0319F72F583A0319862E3C3A44
:101D98000319D52E0D3A0319D52E113A0319862E9B
:101DA800882EB01BEF2E2E08840083130008B10084
:101DB800840A0008B2000230A8002808AE07B21F43
:101DC8004C2F0330A8002808B004B109B209B10AA1
:101DD8000319B20A4C2F2E08840083130008B1009F
:101DE800840A0008B2000230A8002808AE074C2F69
:101DF800B301B30A053033060319552F3308A80079
:101E08002807123E840088300318013EFF000A129A
:101E18008A1500200A128A15A9000A128A150020BC
:101E28000A128A15AA002A083202031D1D2F290842
:101E38003102031C552F0130A8002808B307FE2ED5
:101E4800B301B30A043033060319552F3308A80029
:101E580028071C3E840088300318013EFF000A1240
:101E68008A1500200A128A15A9000A128A1500206C
:101E78000A128A15AA002A083202031D452F2908CA
:101E88003102031C552F0130A8002808B307262F5C
:101E980030088039003A0319FC2E803A0319242FA0
:101EA800552F3008033903196A2F2D30A80034083C
:101EB80084002808831780000130A8002808B40788
:101EC8000130AC070318AD0A0030AD073308A8008D
:101ED8002808AF00E62F0A30F8000030F9002F0874
:101EE800A8002807123E840088300318013EFF002E
:101EF8000A128A1500200A128A15F0000A128A1599
:101F080000200A128A15F1003208F3003108F200A5
:101F18000A168A1532250A128A157108FB007008FC
:101F2800FA000A168A15C9240A128A157808303E5A
:101F380083120313A9002908D42F2F08A800280703
:101F48001C3E840088300318013EFF000A128A15DF
:101F580000200A128A15F0000A128A1500200A12B7
:101F68008A15F1003208F3003108F2000A168A15C2
:101F780032250A128A1570080F3983120313A90033
:101F88002908AB002B08AE3E84008B300318013EB5
:101F9800FF000A128A1500200A128A15A8002808CC
:101FA800B3003308A8003408840028088317800089
:101FB8000130A8002808B4070130AC070318AD0A9F
:101FC8000030AD07FF30A8002808AF072F0A031913
:101FD800992E30088039003A03196F2F803A031977
:101FE800A12FD52FD52F34088400831780012D0801
:081FF800A1002C08A000080064
:1020040083120313AC01AA1F0E28A909AA09A90A5D
:102014000319AA0AAC01AC0AA81F1528A709A80924
:10202400A70A0319A80A2708280403194228AB01A0
:10203400AB0AA81B292801300310A70DA80DFF3EE9
:10204400031D1E280130FD007D08AB071B2828084E
:102054002A02031D2F2827082902031C37282708D2
:10206400A9022808031CAA03AA0201300310A80C21
:10207400A70CFF3E031D38280130AB02031D29289D
:102084002C0803194A28A909AA09A90A0319AA0AA2
:102094002A08A8002908A700080083120313A70030
:1020A4001030A8000030A9002308A5002508F0007E
:1020B4002908F2002808F10024080A168A15E722E4
:1020C4000A168A1183120313AA0104302A02031880
:1020D4000800AB0104302B020318A5282108F700DF
:1020E4002208F8002A08A5002508F9002B08A600F4
:1020F4002608FA000A168A1598210A168A11013A46
:10210400031D9B28831203132408F6000130F700F3
:102114002A082007A5002508F8002B082707A60091
:102124002608F900FA01FA0A0A168A15ED210A1698
:102134008A11013083120313A5002508AB0704306C
:102144002B02031C70280130A5002508AA07672864
:1021540083120313A800AB0108302B0203180800F4
:10216400AC0102302C020318F428AD012D08031D24
:10217400EC282C08A00002300310A00DFF3E031D24
:10218400BE280310200D2807A1002D08A20002304C
:102194000310A20DFF3E031DCA280310220D2107C0
:1021A400A3002B082307A400240884008313000839
:1021B400A50029302C07A6002D082607A70027080C
:1021C4008400250880000130A0002008AD072D08F8
:1021D4000319BB280130A0002008AC0702302C02F0
:1021E400031CB728F401F40A2B08A0002008F5000A
:1021F40029300A168A1107210A168A11013083121E
:102204000313A0002008AB07AE28FB0083120313BE
:102214000511FD0102307D0203186129FC017C08CF
:10222400031D59297508F6007608F9007D03FF3A65
:10223400013E7B07F6007C03FF3A7607F700770838
:10224400840083130008F8007808FA007403031D5F
:1022540046297D03FF3A013E0139031942297508D5
:10226400013EFF3A013E083EF6007608F9007A087E
:102274000A168A156B240A168A11F6007608FA00E3
:102284000130F6007608F90779080A168A156023E2
:102294000A168A117A080A168A1560230A168A1100
:1022A4000130F6007608FC077C0803191429013074
:1022B400F6007608FD0702307D02031C1029831204
:1022C40003130515080083120313DC00DB010F3030
:1022D400D7005708DD00DD1B080001308316031307
:1022E400D3070318D40A0030D407831203135C08FD
:1022F400CC000030CD005D08D7005708CE000A1688
:102304008A1537230A168A11013A031DBC297A302B
:1023140083120313B5008A30B600D830B7000030FA
:10232400B80000300A128A1107210A168A11831292
:1023340003135D08D7005708F0005C080A168A15D5
:10234400FB240A168A11C33083120313B5008A30A2
:10235400B600D830B7000030B80000300A128A1135
:1023640007210A168A11013083120313D700570874
:10237400DB076D29FF3083120313D7005708DD07ED
:102384006D290A168A11C52983120313BF00BC01E3
:10239400BD01FF30B7003708BE00C001083040025D
:1023A4000318262AFF30B7003708BE000F30B700E5
:1023B4003708C100C11B1E2A3E0A0319022A3F081E
:1023C400F7000130F8004108B7003708F900400869
:1023D400B8003808FA000A168A1598210A168A11D4
:1023E400013A031D002A831203133E08031D002A29
:1023F4000130BC070318BD0A0030BD078312031364
:102404003F08F7000130F8004108B7003708F90029
:102414004008B8003808FA000A168A1598210A16E6
:102424008A1183120313B9003908BE00FF30B700C4
:102434003708C107C11FDE290130B7003708C007BC
:10244400D0290A168A11252A831203133D08B600DF
:102454003C08B50008007008F4007108F5008A2AE9
:10246400740884008317751C8313730801390010E2
:10247400031D00140800740884008317751C83135B
:10248400730801398010031D801408007408840047
:102494008317751C8313730801390011031D00157C
:1024A4000800740884008317751C831373080139AA
:1024B4008011031D80150800740884008317751C9F
:1024C4008313730801390012031D001608007408F1
:1024D40084008317751C8313730801398012031D4C
:1024E40080160800740884008317751C831373080E
:1024F40001390013031D00170800740884008317B2
:10250400751C8313730801398013031D8017080099
:102514007208003A0319322A013A03193D2A033A90
:102524000319482A013A0319532A073A03195E2A60
:10253400013A0319692A033A0319742A013A03195F
:102544007F2AA42A080083120313CE004E0803191D
:1025540008004C084D040319112B4C08A0004D0829
:10256400A10090300A128A157C260A168A11831259
:1025740003132108D0002008CF005008803AFF0040
:1025840080307F02031DC82A41304F02031CD62A23
:102594004C30F1008930F2000A168A1533220A16EB
:1025A4008A110A168A11D52A9030F1000130F200FE
:1025B4000A168A1533220A168A11E9308312031384
:1025C400A0008C30A10090300A128A157C260A16CD
:1025D4008A11831203132108D2002008D100520863
:1025E400803AFF0080307F02031DFA2A41305102F5
:1025F400031C082B4C30F1008930F2000A168A15AE
:1026040033220A168A110A168A11072B9030F10018
:102614000130F2000A168A1533220A168A11003094
:1026240083120313B500B600D830B7000030B800E9
:1026340001300A128A110721080083120313C30010
:10264400262B0A168A11252B033083120313B90093
:102654003908C500C51B992BC4014408803A7C3E47
:102664000318912B3608F7003708F8004508B9001D
:102674003908F9004408BA003A08FA000A168A151B
:1026840098210A168A11013A031D862B831203131B
:1026940035084507B900BA010318BA0AB51BBA03CD
:1026A400C51BBA03831203133A08803AFF00803033
:1026B4007F02031D5F2B0F3039020318652B672B34
:1026C4000A168A11642B0130080083120313380898
:1026D400F7000030F80045083507013EB900390815
:1026E400F90044084307BA003A08FA000A168A15A2
:1026F40098210A168A11013A0319842B862B0A168B
:102704008A11832B01300800013083120313B900AE
:102714003908C4074408803A7C3E031C342BFF303C
:10272400B9003908C5072C2B0A168A11982B0030DA
:10273400080083120313D800AB30B5008A30B6000A
:102744005808D6005608B7005208D7005708B800F2
:102754005308B9005408BA0000300A128A119422AE
:102764000A168A11AB3083120313B5008A30B600FF
:102774005508B7000030B80000300A128A1107214A
:102784000A168A1183120313D9010430590203185B
:102794000D2CDA0104305A020318052C5308F700F3
:1027A4005408F8005908D6005608F9005A08D7000A
:1027B4005708FA000A168A1598210A168A11013A4E
:1027C400031DFB2B831203135508F6000030F7009A
:1027D40059085207D6005608F8005A085807D70077
:1027E4005708F900FA01FA0A0A168A15ED210A16A1
:1027F4008A11013083120313D6005608DA07043015
:102804005A02031CD02B0130D6005608D9070430D5
:102814005902031CCB2B3730B5008B30B60055085A
:10282400B7000030B80000300A128A1107210800EE
:1028340083120313BF00BD01BE01FF30B700370888
:10284400C000C101083041020318972CFF30B700C3
:102854003708C000BC010F30B7003708C200C21BE4
:102864008F2C400A031D4D2C3F08F7000130F8005F
:102874004208B7003708F9004108B8003808FA00E0
:102884000A168A1598210A168A1183120313B900AD
:102894003908C000892C3F08F7000130F8004208CD
:1028A400B7003708F9004108B8003808FA000A16DA
:1028B4008A1598210A168A118312031340060319F4
:1028C400802C3F08F7000130F8004208B7003708B1
:1028D400F9004108B8003808FA000A168A15982148
:1028E4000A168A1183120313B9003908C00040087C
:1028F400031D7E2CBC01802CBC01BC0A3C03031DBF
:10290400892C0130BD070318BE0A0030BE07FF3012
:10291400B7003708C207C21F332C0130B70037088D
:10292400C107242C0A168A11962C831203133E081D
:10293400B6003D08B500080083120313C30003303A
:10294400B9003908C500C51B242DC4014408803AC8
:102954007C3E03181E2D013083160313D30703187E
:10296400D40A0030D407831203133608F70037085B
:10297400F8004508B9003908F9004408BA003A08D3
:10298400FA000A168A1598210A168A11013A031DBB
:10299400132D831203133808F7000030F80045089C
:1029A4003507013EB9003908F90044084307BA0065
:1029B4003A08FA000A168A1598210A168A11013A69
:1029C4000319E82CEF2C0A168A11E72C831203133F
:1029D400350808000A168A11EE2C831203133508F1
:1029E4004507B900BA010318BA0AB51BBA03C51BD7
:1029F400BA03831203133A08803AFF0080307F023F
:102A0400031D062D0F30390203180C2D132D0A1641
:102A14008A110B2D83120313350808000A168A1134
:102A2400122D013083120313B9003908C407440876
:102A3400803A7C3E031CAD2CFF30B9003908C50731
:102A4400C51FA72C0130B9003908B507A12C83167E
:102A540003138511051185108316031788100811B7
:102A6400881183120313051585100030F000F1005E
:102A74001030F2000030F30021300A128A15F424D9
:102A84000A168A11F401093083120313A0002008E6
:102A9400F50021300A168A1107210A168A110F300F
:102AA400F0000030F1001030F2000030F30021306B
:102AB4000A128A15F4240A168A11F4010A308312C0
:102AC4000313A0002008F50021300A168A110721FB
:102AD4000A168A110730F0000030F1001030F200BD
:102AE4000030F30021300A128A15F4240A168A11E0
:102AF400F4010B3083120313A0002008F5002130E9
:102B04000A168A1107210A168A110130F0000030D2
:102B1400F1001030F2000030F30021300A128A155F
:102B2400F4240A168A11F4010C3083120313A00052
:102B34002008F50021300A168A1107210A168A1185
:102B4400FF30F0000030F1001030F2000030F300EC
:102B540021300A128A15F4240A168A11F401F501A7
:102B640021300A168A11072108007008F50071083F
:102B7400F6002F2E760883120313FF0075088400D5
:102B84000A128A150020F300730801390800760838
:102B940083120313FF00750884000A128A150020AB
:102BA400F300730C01390800760883120313FF0045
:102BB400750884000A128A150020F300730CF400CF
:102BC400740C01390800760883120313FF0075089A
:102BD40084000A128A150020F300730CF400F40C2C
:102BE400740C01390800760883120313FF0075087A
:102BF40084000A128A150020F300730E01390800BC
:102C0400760883120313FF00750884000A128A15DC
:102C14000020F300730EF400740C013908007608E8
:102C240083120313FF00750884000A128A1500201A
:102C3400F300730EF400F40C740C013908007608E8
:102C440083120313FF00750884000A128A150020FA
:102C5400F300730D730D013908007208003A03196B
:102C6400BC2D013A0319C92D033A0319D62D013A93
:102C74000319E52D073A0319F52D013A0319022E1C
:102C8400033A0319112E013A0319212E492E080083
:102C940083120313E0006008031908005208530468
:102CA4000319B62E5208A0005308A10090300A124E
:102CB4008A157C260A168A11831203132108DB0065
:102CC4002008DA005B08803AFF0080307F02031D91
:102CD4006D2E41305A02031C7B2E4C30F10089309A
:102CE400F2000A168A1533220A168A110A168A1164
:102CF4007A2E9030F1000130F2000A168A15332240
:102D04000A168A11E93083120313A0008C30A10043
:102D140090300A128A157C260A168A11831203132C
:102D24002108DD002008DC005D08803AFF008030C7
:102D34007F02031D9F2E41305C02031CAD2E4C30DC
:102D4400F1008930F2000A168A1533220A168A1114
:102D54000A168A11AC2E9030F1000130F2000A16E6
:102D64008A1533220A168A11831203136E08D600B9
:102D74005607103E84006F0883170007D700013000
:102D84000310D70DFF3E031DC22E0310570D243E22
:102D9400D80088300318013ED9005808DE005908CD
:102DA400DF000030B500B6005408D6005608B7005E
:102DB4005508D7005708B8005E08B9005F08BA0084
:102DC40001300A128A119422080083120313C600E8
:102DD400C501C503C401C403C301C7014708803A40
:102DE400783E0318FC2FFF30C400B5003508C50039
:102DF400C8014808803A703E0318BD2F4708031DD8
:102E0400162F4608F7000130F8004808B5003508C9
:102E1400F9004708B6003608FA000A168A15982100
:102E24000A168A11003A642F07304706031D3B2F08
:102E34004608F7000130F8004808B5003508F900E5
:102E44004708B6003608FA000A168A1598210A16A9
:102E54008A11003A031D862F831203134608F700D4
:102E64000130F8004808B5003508F9004708FF3E6E
:102E7400722F4608F7000130F8004808B5003508FD
:102E8400F9004708B6003608FA000A168A15982190
:102E94000A168A11003A031D862F8312031346086B
:102EA400F7000130F8004808B5003508F900470874
:102EB400FF3EB6003608FA000A168A1598210A164B
:102EC4008A11013A031D862F831203134608F70063
:102ED4000130F8004808B5003508F9004708013EFC
:102EE400B6003608FA000A168A1598210A168A11BD
:102EF400013A031D862F83120313450A031D862FEF
:102F04004808B5003508C50083120313C51BB22F4A
:102F14000F304806031D932F440A031DB22F1030AF
:102F2400AF2F4608F7000130F8004808013EB5000D
:102F34003508F9004708B6003608FA000A168A155B
:102F440098210A168A11013A031DB22F8312031322
:102F5400440A031DB22F4808013EB5003508C400D9
:102F6400013083120313B5003508C8074808803AB6
:102F7400703E031C002FC51FC41BEC2F4508B50071
:102F8400B601B51BB603B509B609B50A0319B60AE5
:102F94004408B700B801B71BB80335083707B900B0
:102FA40036080318360A3807BA003A08803AFF0090
:102FB40080307F02031DE02F033039020318E62F0F
:102FC400EC2F0A168A11E52F013083120313B50082
:102FD4003508C307013083120313B5003508C7074A
:102FE400F02E0A168A11F52F0A168A11F82F0A16DE
:0C2FF4008A11FB2F83120313430808000E
:1032CA00D8300A168A15C92108000134003400349E
:1032DA0000340234F000831203130C1E70297008A4
:1032EA0099000800F1007108031D7D2901300800CA
:1032FA00003008008030F0002530F1000A168A15E7
:10330A002C26080064008001840A0406031900348C
:10331A0004068829700883160313E8007108E90077
:10332A00EA01EB01080079087707F000780803182A
:10333A00013EF1007A08FB007B08F2000A168A11A6
:10334A00B72508000030F000F1001030F20000301C
:10335A00F300D8300A128A15F4240A168A150A16B6
:10336A008A15652108007E088A007F088200B82134
:10337A000A168A158000840A04087D060319003497
:10338A00FF0A0319FE0ABC2983120313B700383057
:10339A00B6003608AD0037080A168A15EC250A1653
:1033AA008A1538300A168A11AA2008000034023415
:1033BA000234023404340234063404340A34043441
:1033CA000E3401340F340434133401341434043405
:1033DA0078087607F00077080318013EF1007908AB
:1033EA00FB007B08F2007A08FC007C08F3000A164E
:1033FA008A112D220800093083120313A700003016
:10340A00A8000A168A15FD260A168A1583120313BE
:10341A002108AA002008A9000A168A11022083128C
:10342A00031327080800F1006400831603178C1899
:10343A00192A7108831203178D003F30F0007008B3
:10344A00831603178C050C1403100C180314003090
:10345A0003180130831203170C080800720883123C
:10346A000313FF00710884000A128A1500200A1645
:10347A008A15003A03190800720883120313FF0021
:10348A00710884000A128A1500200A168A150A167B
:10349A008A156F210A168A150130F1070318F20AF4
:1034AA00332A83120313CD01CE01491C622A4B0829
:1034BA00CD070318CE0A4C08CE0701300310CB0DF6
:1034CA00CC0DFF3E031D632A01300310CA0CC90C40
:1034DA00FF3E031D6A2A49084A04031D5A2A4E0858
:1034EA00CA004D08C900080083120313BA0036083F
:1034FA00B7003708BB003B08B7003708F0003A08A6
:10350A000A168A15C1220A168A1583120313350868
:10351A00B7003708BB003B08B7003708F0003A0885
:10352A00013E0A168A15C12208000A168A159C2A23
:10353A000A168A1129250A168A150A168A157F215A
:10354A000A168A1500300A168A159A240A168A1546
:10355A0083120313360883160313D400831203134A
:10356A00350883160313D3005408F1005308F000FA
:10357A000A168A158F210800F200831603178C1881
:10358A00C22A7208831203178D0070088C003F301C
:10359A00F1007108831603178C05831203130310B5
:1035AA008B1B03148B13831603170C1555308D00D0
:1035BA00AA308D008C140C1183120313031C08000B
:1035CA008B170800F4007008F3007308F6007408FB
:1035DA00F3007308F5000130F1020030031CF20316
:1035EA00F202710A0319720A0319080076088400A4
:1035FA0083130008F300750884007308831780009A
:10360A000130F3007308F6070130F3007308F50779
:10361A00F02AFD00831203132708AA002A08F900DA
:10362A002808AB002B08FA007D080A168A15AD2572
:10363A000A168A1583120313AC002C08FC0027080B
:10364A000739AA002A08F00028080739AB002B0816
:10365A00F1002908AC002C08F2007C080A168A1529
:10366A008A230800831203134E084C07CF004D0823
:10367A000318013ED0004F0884008317501C83139F
:10368A00000A03194D2B003008000A168A154C2B24
:10369A00A23083120313B5008C30B6004C08B70071
:1036AA004D08B80000300A128A11072101300800BB
:1036BA000A168A155F2BF1008030F0007008F200BC
:1036CA00F301083073020318080071087205031920
:1036DA00722B831203138515752B8312031385111D
:1036EA000310F20C85141030F000F00B7A2B000056
:1036FA008312031385101030F000F00B822B0000A8
:10370A000130F0007008F307662BF700700AF30027
:10371A008030F4000030F500952B750DF50CF40C93
:10372A00F30B922B7408F6007608F8007208031956
:10373A00A92B7808F30071087707F400740884004D
:10374A007308831380040800F8097808F3007108E5
:10375A007707F4007408840073088313800508004F
:10376A0083120313B9000F30B5003508BA00BA1B2B
:10377A00DF2B3A08B5003508F00039080A168A1511
:10378A0077210A168A15013A0319CF2BD72B0A1665
:10379A008A15CE2B831203133A08013EFF3A013EE3
:1037AA00103E0800FF3083120313B5003508BA072C
:1037BA00BA1FBE2B1030080083120313DB00DC0192
:1037CA00DD015D08803A703E03180B2C5B08CC00C3
:1037DA000130CD005D08D7005708CE000A168A15B9
:1037EA0037230A168A15013A031D012C0130831268
:1037FA000313D7005708DC07013083120313D700DD
:10380A005708DD07E62B0A168A150A2C83120313BA
:10381A005C08080083120313C800013083160313DF
:10382A00D3070318D40A0030D407831203134208BB
:10383A00B5004308B6004408C5004508B700480863
:10384A000A128A1105200A168A15013A0319312C1F
:10385A00362C0A168A15302C831203134808013EA7
:10386A000800FF3083120313C5004508C807122C4D
:10387A0083120313C600013083160313D3070318F8
:10388A00D40A0030D407831203133F08B500400856
:10389A00B6004108C2004208B70046080A168A154F
:1038AA0052270A168A15023A03195F2C642C0A1643
:1038BA008A155E2C831203134608FF3E0800013066
:1038CA0083120313C2004208C607402CF10071306C
:1038DA00F0007008F300730884007210801B7214E1
:1038EA0073088400F210001BF2147308840072112A
:1038FA00801A721573088400F211001AF2157308FF
:10390A00840072128019721673088400F212001968
:10391A00F2167308840072138018721773088400F1
:10392A00F2130018F2177208080083120313BB007F
:10393A00BC01BD013B080A168A1518220A168A1507
:10394A0083120313B700B8013708B800B701370864
:10395A00BC003808BD003B08013E0A168A15182229
:10396A0083120313B700B8013708BC070318BD0A4E
:10397A003808BD07831203133D08B6003C08B5009A
:10398A0008000A168A15C82C780879040319F62C37
:10399A00FD01FD0AF91BDD2C01300310F80DF90DAC
:1039AA00FF3E031DD22C0130FC007C08FD07CF2C02
:1039BA0079087B02031DE32C78087A02031CEB2C9E
:1039CA007808FA027908031CFB03FB020130031092
:1039DA00F90CF80CFF3E031DEC2C0130FD02031D0F
:1039EA00DD2C7B08F9007A08F8000800F4000F3093
:1039FA00F1007108F500F51B08007508F100F201E5
:103A0A00F11BF2037208803A803C031D0E2D7108E7
:103A1A007002031C2D2D7508803A7F3E031C262D4B
:103A2A007508FF3E7407F1007108840083130008CB
:103A3A00F20075087407F3007308840072088000A6
:103A4A002D2D75087407F100710884008313800115
:103A5A00FF30F1007108F507002DF501F601700835
:103A6A0071040319692DF701F70AF11B482D01307A
:103A7A000310F00DF10DFF3E031D3D2D0130F40042
:103A8A007408F7073A2D01300310F50DF60DFF3EC5
:103A9A00031D492D71087302031D552D700872020A
:103AAA00031C5E2D7008F2027108031CF303F30273
:103ABA00751401300310F10CF00CFF3E031D5F2D4D
:103ACA000130F702031D482D7608F1007508F00051
:103ADA0008000030FC000030FB000030FA00003023
:103AEA00F900701C8C2D7408F90775080311031866
:103AFA00013E031DFA07760803110318013E031D50
:103B0A00FB07770803110318013E031DFC07013068
:103B1A00F8000310F40DF50DF60DF70DF80B8E2DC8
:103B2A0001300310F30CF20CF10CF00CFF3E031DF4
:103B3A00962D7308720471047004031D762D7C0897
:103B4A00F3007B08F2007A08F1007908F000080017
:103B5A00FB000830F0000030F100790883120313EB
:103B6A00A000A1012008F2002108F3000A168A1514
:103B7A00A7270A168A15700883120313A2000230B7
:103B8A000310A20DFF3E031DC52D0310220D7B0756
:103B9A00A3000830F0000030F1007A08A400A50163
:103BAA002408F2002508F3000A168A15A7270A1620
:103BBA008A15700883120313A60002300310A60D9B
:103BCA00FF3E031DE32D0310260D23070800831271
:103BDA000313B300B4010830340203180800B50116
:103BEA00103035020318272E3508AE002E08A7001C
:103BFA003408AF002F08A8003308F7000030F80097
:103C0A003508B0003008F9003408B1003108FA006C
:103C1A000A168A1598210A168A1583120313B20006
:103C2A003208A9002D080A168A150E230A168A15C3
:103C3A00013083120313AE002E08B5071030350287
:103C4A00031CF92D0130AE002E08B407F02D382ED2
:103C5A008130342E4030342E2A30342E24308316CC
:103C6A00031399005A2E7108253A0319462E6E3A03
:103C7A0003194B2E3B3A0319502EF33A0319552ECA
:103C8A005A2E7008803A03192D2E5A2E7008003ABF
:103C9A0003192F2E5A2E7008803A0319312E5A2EE4
:103CAA007008403A0319332E5A2E83160313181339
:103CBA009816181218158312031398171813181642
:103CCA009811831603138C160B178B17080083128F
:103CDA000313A600A7010430270203180800A8014D
:103CEA00043028020318AD2E2108F7002208F80034
:103CFA002708A4002408F9002808A5002508FA00C6
:103D0A000A168A1598210A168A15013A031DA32E46
:103D1A00831203132308F6000030F7002708200750
:103D2A00A4002408F80028082607A5002508F90099
:103D3A00FA010A168A15ED210A168A15013083122C
:103D4A000313A4002408A80704302802031C792EB0
:103D5A000130A4002408A707702E83120313C100A0
:103D6A00B92E0A168A15B82E83120313C301430803
:103D7A00803A7C3E03180800C2014208803A7C3E21
:103D8A000318F82E3508F7003608F8004308B7007C
:103D9A003708F9004208B8003808FA000A168A15E6
:103DAA0098210A168A15013A0319DF2EED2E0A16F2
:103DBA008A15DE2E8312031343084107FF3A013E98
:103DCA00103E08000A168A15E92E0A168A15EC2EE4
:103DDA00013083120313B7003708C2074208803A3A
:103DEA007C3E031CC72E0130B7003708C307BC2E20
:103DFA00831603136B08F3006A08F2006908F100DE
:103E0A006808F0004130F700C630F6004E30F50081
:103E1A006D30F4000A168A156E250A168A1573087B
:103E2A0083160313EB007208EA007108E9007008B0
:103E3A00E8003930E807303003183130E90700303C
:103E4A0003180130EA07003003180130EB0768084D
:103E5A0083120313A2008316031369088312031340
:103E6A00A300831603136A0883120313A40083169C
:103E7A0003136B0883120313A5001030A600250D47
:103E8A00A50CA40CA30CA20CA60B442FFF302205F0
:103E9A00A0007F302305A100080083120313BC0091
:103EAA000330B8003808BD00BD1BA52FBE013E086F
:103EBA00803A7C3E03189F2F3508F7003608F80031
:103ECA003D08B8003808F9003E08B9003908FA0078
:103EDA000A168A1598210A168A15013A031D942F83
:103EEA00831203133C083E07B800B9010318B90A44
:103EFA00BC1BB903BE1BB903831203133908803AEA
:103F0A00FF0080307F02031D8C2F0830380203180F
:103F1A00922F942F0A168A15912F02300800013029
:103F2A0083120313B8003808BE073E08803A7C3E65
:103F3A00031C612FFF30B8003808BD07BD1F5B2F77
:103F4A0000300800F601F11FB12FF009F109F00A5B
:103F5A000319F10AF601F60AF31FBC2FF209F30955
:103F6A00F20A0319F30A0130F4007408F606F7019D
:103F7A00F801700871040319F32FF501F50AF11B12
:103F8A00D22F01300310F00DF10DFF3E031DC72F94
:103F9A000130F4007408F507C42F01300310F70D3F
:103FAA00F80DFF3E031DD32F71087302031DDF2F87
:103FBA0070087202031CE82F7008F2027108031CD1
:103FCA00F303F302771401300310F10CF00CFF3EF7
:103FDA00031DE92F0130F502031DD22F76080319BC
:103FEA00FB2FF709F809F70A0319F80A7808F1000C
:063FFA007708F00008004A
:04400E003CFFFFFE76
:00000001FF
